:020000040800F2
:100000000810002001010008252B000849200008E5
:10001000212B00085D0200081D32000800000000CE
:100020000000000000000000000000006F2B00082E
:100030006102000800000000692B0008AD2C0008D8
:100040001B0100081B0100081B0100081B01000820
:10005000C10600086D2B00081B0100081B010008E9
:100060001B0100081B0100081B0100081B01000800
:100070001B0100081B0100081B0100081B010008F0
:100080001B0100081B0100081B0100081B010008E0
:100090001B0100081B0100081B0100081B010008D0
:1000A0001B0100081B0100081B0100081B010008C0
:1000B0001B0100081B0100083D2D00088D200008D1
:1000C000812000081B0100081B0100081B0100081B
:1000D0001B010008113200081B0100081B01000869
:1000E0001B0100081B0100081B010008DFF80CD0F1
:1000F00000F0A2F80048004709340008081000206A
:100100000648804706480047FEE7FEE7FEE7FEE7B1
:10011000FEE7FEE7FEE7FEE7FEE7FEE7F52C000858
:10012000ED00000840EA01039B0703D009E008C97D
:10013000121F08C0042AFAD203E011F8013B00F8AC
:10014000013B521EF9D27047D2B201E000F8012BF8
:10015000491EFBD270470022F6E710B513460A4647
:1001600004461946FFF7F0FF204610BD421E12F864
:10017000013F002BFBD111F8013B02F8013B002BA2
:10018000F9D1704730B505462A460B4612F8010BE7
:1001900013F8014B08B1A042F8D01CB1002802D0DE
:1001A0006D1CF1E7284630BD421C10F8011B0029E8
:1001B000FBD1801A7047034611F8012B00F8012B80
:1001C000002AF9D11846704770B50F4D00B928685C
:1001D000002412E00A4602E09E4203D0521C13782B
:1001E000002BF9D1DAB2224305D02BB124B1002182
:1001F00000F8011B04E00446401C0678002EE9D1FB
:100200002860204670BD00008000002030B50B46FD
:10021000014600202022012409E021FA02F59D4236
:1002200005D303FA02F5491B04FA02F52844151E0A
:10023000A2F10102F1DC30BD064C074D06E0E0689A
:1002400040F0010394E8070098471034AC42F6D31D
:10025000FFF750FF644B0008844B000802F062FC7B
:1002600002F060FC2DE9F0479CB03D2244490CA807
:10027000FFF758FF424890F83D008DF86D0030229E
:1002800010A96846FFF74EFF0CAC94E80F0003F08E
:10029000B1F83C4CDFF8F0800027012210214046E5
:1002A000276500F051FC4FF47A75294637A002F01B
:1002B00061FC294637A002F05DFC0028F9D003F06C
:1002C00083F84FF4FA76314636A002F053FC00284A
:1002D000F9D003F079F860690025D8B1A069C8B1F8
:1002E00041F6583A4FF00109D4E90501524602F0AF
:1002F0009FFC6D1C206440B1002210214046C4F8D0
:10030000509000F021FC03F0CBF8052D2FD0206C8D
:100310000028E9D003F058F83446214624A002F022
:1003200029FC0028F9D003F04FF800BF00F018FABC
:100330000028FBD0214629A002F01CFC0028F9D09F
:1003400003F042F8214628A002F014FC0028F9D05E
:1003500003F03AF8214629A002F00CFC0028F9D05D
:1003600003F032F81CB0BDE8F04703F0A1BA012257
:1003700010214046276500F0E7FB03F0BFF9C9E70D
:10038000A80B0020000000200008014041542B521F
:100390005354000041542B43574155544F434F4E43
:1003A0004E3D300041542B43574D4F44453D3300A3
:1003B00041542B43575341505F4445463D225365BA
:1003C000726861745F455350222C227365726861B4
:1003D000747365666572222C352C340041542B43AE
:1003E00049504D55583D310041542B4349505345D8
:1003F000525645523D312C383000000041542B43B9
:10040000495053544F3D35303030000010B5144C36
:100410002069FFF7C9FE0146A0654FF4967211A04E
:1004200002F0D0FB4FF47A71206902F0A3FB00BF09
:1004300002F0CAFF64210FA002F09CFB0028F7D055
:1004400002F0C2FF4FF4FA7402F0BEFF21460DA085
:1004500002F090FB0028F7D0BDE8104002F0B4BFD6
:100460000000002041542B43495053454E443D3039
:100470002C00000041542B434950434C4F53453D01
:100480003500000041542B434950534552564552C4
:100490003D312C3830000000F0B5714C714D9DB0ED
:1004A000A06B4FF4FA7600284DD0012204212F468C
:1004B000284600F049FB03F083F93D226A490CA865
:1004C000FFF730FE684D15F83D0F8DF86D003022B6
:1004D00010A96846FFF726FE0DF1300C9CE80F00CE
:1004E00002F0D4FF6068FFF75FFE0146A06564225A
:1004F0005EA002F067FBC821606802F03BFB64214C
:100500005EA002F037FB02F05FFF31465FA002F011
:1005100031FB02F059FF00220421384600F014FBA1
:100520003D2251490CA8FFF7FDFD28788DF86D009C
:10053000302210A96846FFF7F5FD0CAF97E80F00D1
:1005400002F050FF26E0E06B48B30122102128465C
:1005500000F0FAFA03F070F9A068FFF725FE0146F3
:10056000A065642241A002F02DFBC821A06802F022
:1005700001FB64214AA002F0FDFA02F025FF31469A
:1005800042A002F0F7FA02F01FFF002210212846D5
:1005900000F0DAFA1DB0BDE8F04003F089B9E06A76
:1005A00078B103F0EBF902F00FFF00202065012283
:1005B0001021284600F0C8FA1DB0BDE8F040FFF752
:1005C00051BE206B40B300222F21284600F0BCFA18
:1005D000E068FFF7E9FD0146A065642223A002F070
:1005E000F1FAC821E06802F0C5FA14212CA002F04B
:1005F000C1FA0028F9D04FF47A7000F02DF9BFF35A
:100600004F8F2B4801682B4A01F4E06111430160D0
:10061000BFF34F8F00BFFDE7606B28B100220F21B1
:10062000284600F091FA14E0A06C002816D022A110
:10063000FFF7A8FD6064A16C401A6065E06951F89D
:10064000062F02604A68426089688160642000F079
:1006500003F91DB0BDE8F040FFF7D8BE1DB0F0BDF6
:100660000000002000080140A80B002041542B434B
:10067000495053454E443D302C00000041542B431B
:100680004950434C4F53453D3000000041542B43EB
:1006900049505345525645523D312C3830000000E8
:1006A00041542B434950434C4F53453D35000000C6
:1006B0000CED00E00400FA05267061737300000081
:1006C00000F0DEB8064A0021D16106490A6942F00D
:1006D00002020A614861086940F040000861704701
:1006E000E80B002000200240044B0022DA61044A9B
:1006F000136943F00103136101807047E80B002088
:100700000020024014480022C168CB06134904D5DA
:10071000CA6942F00202CA611022C3685B0705D5AC
:10072000CB6943F00103CB6142F00402C369DB07EC
:1007300007D0CB6943F00403CB61C16921F001010B
:10074000C161A2F58071013901D0C2607047C169F1
:1007500021F00101C161704700200240E80B002038
:1007600070B5002529460DA002F004FA0EA110482C
:10077000FFF708FD0F4C10A1E064FFF725FD0EA167
:100780000020FFF721FD0D4A03E05155401C6D1C70
:10079000E064E06C01780029F7D170BD41542B432F
:1007A0004946535200000000535441495000000094
:1007B000840000200000002022000000920600209B
:1007C00010B590F821100024022903D00421816380
:1007D00001243DE001680A6822F00E020A60016807
:1007E0000A6822F001020A601A4A0168914201D1A6
:1007F000012121E0174A1432914201D110211BE05E
:10080000144A2832914201D1891515E0114A3C322F
:10081000914201D189140FE00E4A5032914202D127
:100820004FF4803108E00B4A6432914202D14FF418
:10083000801101E04FF08071064A083A51600121B1
:1008400080F82110002180F82010416B01B1884709
:10085000204610BD0800024070B5044600F07AF949
:100860000546601C02D004480078044400F072F988
:10087000401BA042FAD370BD7000002070470000FA
:100880002DE9F0413E4DE8683E4CC0064FF0FF3781
:100890004FF0000602D4E868400708D5D4F8088075
:1008A000A760FFF72FFF404600F06EF82670E8685B
:1008B000800653D52020E8602078F8B12078012800
:1008C0001DD02078022833D06068401E60606068C8
:1008D000B0B3A068801CA060A06821696269090C9F
:1008E00041EA0241120C21616261296921F0010192
:1008F00029612169626989B2FFF7F6FE2EE060681E
:10090000401E6060606868B1A068FFF7B7FFA0682C
:1009100000F58060A060296921F002012961FFF7DC
:10092000D1FE1BE03846A7602670FFF7A7FF15E051
:10093000286920F0040028610020FFF79FFF0CE0E9
:10094000FFE72078032817D020780428A06815D066
:10095000B0F10600FFF792FFA7602670207800280C
:1009600008D1286920F007002861286920F4A050E8
:1009700028612676BDE8F081A068EBE7801EE9E7F4
:1009800000200240E80B0020704700002DE9F84FDE
:10099000DFF890A100220AF1040B144601274FF062
:1009A0000F090BF1040E00BF0B6807FA04F52B408A
:1009B000AB4274D1DFF870C14E68A6EB0C086645F7
:1009C0002BD00DDC032E34D005DC36B3012E19D02C
:1009D000022E2FD11BE0112E16D0122E2AD119E093
:1009E000B8F5881F19D006DCB8F5803F15D0B8F5EA
:1009F000801F1FD111E0B8F5001F0ED0B8F5041FFD
:100A000018D10AE0CA6815E0CA68121D12E0CA6867
:100A100008320FE0CA680C320CE08A682AB1012A59
:100A20004FF0080203D0456104E0042202E00561B2
:100A300000E00022FF2B01D8064601E000F1040689
:100A40004FEA840501D9A5F12005D6F800C009FABE
:100A500005F82CEA080C02FA05F54CEA050CC6F874
:100A600000C04D68ED0057D5304DAE6946F0010627
:100A7000AE61AD6924F0030605F0010500952C4D2B
:100A800006EB050CDCF80850A6074FEA167809FAC1
:100A900008F6B543274EB04202D1002610E03BE0F5
:100AA000254EB04201D101260AE0244EB04201D1C8
:100AB000022605E0224EB04201D1032600E00426C2
:100AC00006FA08F62E43CCF808604D68DAF80060A4
:100AD000ED03554601D51E4300E09E432E604D6850
:100AE000DBF80060AD035D4601D51E4300E09E4388
:100AF0002E604D68DEF80060ED02754601D51E439C
:100B000000E09E432E604D68AD020E4D2E6801D56B
:100B10001E4300E09E432E60641C102CFFF444AF83
:100B2000BDE8F88F000401400000111000100240E1
:100B30000000014000080140000C0140001001408D
:100B4000001401400C0401400AB10161704709041E
:100B5000FBE700000148806870470000700000203B
:100B60007047704770B5044600684569466830496B
:100B70000D420DD0F1050BD5216C41F0010121642E
:100B80006FF4807141612068016841F400410160A7
:100B900015F4813F09D0F00507D5206C40F0020024
:100BA000206421686FF40070486115F4823F28D0FA
:100BB000F00526D594F83E30628D94F83D00216B07
:100BC000202B08D13AB921280ED029280CD028286A
:100BD00001D1212908D0206C40F00400206494F851
:100BE0003E00102804D008E0204601F0ADFD08E0EA
:100BF0002068016841F40071016021686FF4806031
:100C0000486115F4843F09D0F00507D5206C40F009
:100C10000800206421686FF400604861206C00289F
:100C200004D02046BDE8704001F05EBA70BD0000FF
:100C3000000101002DE9F05F02680446D2F8188037
:100C40005569566890F83E007449DFF8D0A1DFF886
:100C5000CCB1DFF8CC918F1C0AF17E0A0BF13E0B70
:100C6000102812D0402810D00D425BD0B00559D5C5
:100C7000936920460021DB435B0700D5012192697F
:100C8000D243120648D5828947E015F0011F05D0EE
:100C9000B00503D5204601F0DAFC10E05F48801D66
:100CA000054205D0B00503D5606CC0B2106106E006
:100CB0000D4204D0B00502D5204601F03BFC18EAF5
:100CC000090F14D015EA0A0F08D0700506D53D4269
:100CD00006D12046BDE8F05F01F0A8BB3D421FD021
:100CE000B0051DD52046BDE8F05F01F05EBB15EAFA
:100CF0000B0F08D0700506D53D4206D12046BDE851
:100D0000F05F01F0FBBA3D420AD0B00508D520469D
:100D1000BDE8F05F01F08EBA028B92B2FFF721FFBF
:100D2000BDE8F09F3D480E30054206D0B00504D521
:100D30002046BDE8F05F01F049BD18EA090F4FF009
:100D4000280134D015EA0A0F23D0700521D53D4281
:100D500021D194F83D302046628D002AE0D0426ACD
:100D6000541C4462046812782261428D521E4285EE
:100D7000428D002AD4D1292BD2D10268536823F4A2
:100D8000806353602122026380F83D1000F0D9F99E
:100D9000C6E73D42C4D0B005C2D5608D0028BFD0A3
:100DA000606A411C616221680078086131E015EADF
:100DB0000B0F22D0700520D53D4220D194F83D3054
:100DC0002046648D002CABD01469426A551C4562E4
:100DD0001470428D521E4285428D002AA0D12A2BCA
:100DE0009ED10268536823F4806353602222026319
:100DF00080F83D1000F0A4F992E73D4290D0B00594
:100E00008ED5608D00288BD01169606A421C6262A9
:100E10000170608D401E608582E7000002000100C5
:100E2000040010007047000070B504001BD094F857
:100E30003D00002520B984F83C50204600F038F9E8
:100E4000242084F83D002068016821F00101016040
:100E500000F0F6FA404A6168914201D83F4900E04B
:100E60003F49884201D2012070BD3E492368B0FB52
:100E7000F1F159606368934206D94FF49673594370
:100E80004FF47A73B1FBF3F12368491C196261686E
:100E9000914210D84900401EB0FBF1F2521CC2F33F
:100EA0000B02042A01D2042022E0B0FBF1F0401C26
:100EB000C0F30B001CE0A368CBB301EBC10202EB53
:100EC0000116421EB2FBF6F2521C42F48042120599
:100ED00036D06BB301EBC10202EB0111401EB0FB37
:100EE000F1F0401CC0F30B0040F4804040F400409F
:100EF0002168C861D4E90701084321680860D4E982
:100F00000310084321688860D4E90501084321687B
:100F1000C8602068016841F001010160256420205B
:100F200084F83D00256384F83E50002070BD00E049
:100F300008E001EB4106421EB2FBF6F2521CC6E786
:100F40000120D5E701EB4101401EB0FBF1F0401C50
:100F5000C0F30B00CAE70000A086010080841E00D9
:100F600000093D0040420F007047704770477047CE
:100F7000704700002DE9FF4F83B09A46DDE91187E5
:100F800093460446DDF84090FFF7E4FD064694F8EA
:100F90003D0020287DD11923012243492046009697
:100FA00001F0A9FC00287CD194F83C00012878D0FD
:100FB000012084F83C0020680168C90703D101685A
:100FC00041F0010101602068016821F400610160C5
:100FD000212084F83D00402084F83E00002525644F
:100FE000C4F82490A4F82A803048E062608D2085FF
:100FF000CDE9007653465A462046049901F054FB49
:1010000080B3206C84F83C50042848D008E0324675
:101010003946204601F0E4FC30B1206C042839D078
:10102000032007B0BDE8F08F606A411C616221684F
:1010300000780861208D401E80B22085618D491E98
:10104000618521684A69D24352070BD468B1606A4E
:10105000421C626200780861208D401E2085608DF0
:10106000401E6085208D0028D1D132463946204669
:1010700001F01AFC0028D0D154F83D0B016841F46E
:1010800000710160202004F81E09E57765770020D3
:10109000C7E706E02068016841F4007101600120A3
:1010A000BFE70220BDE70000020010000000FFFFC4
:1010B00010B586B000210091019102910391006862
:1010C0001B49884232D11B4CA06940F00800A06146
:1010D000A069694600F0080004904FF44070009049
:1010E00012200190032003901348FFF74FFC134890
:1010F000416841F0E06141F002014160E06940F483
:101100000010E061E069002200F400100490114634
:101110001F2000F0ADF81F2000F09EF800221146BD
:10112000202000F0A5F8202000F096F806B010BDB1
:101130000054004000100240000C0140000001403B
:101140007047704702488168027811448160704797
:1011500070000020074810B5016841F010010160DF
:10116000032000F0A5F8002000F006F800F024F8B5
:10117000002010BD0020024070B50D4D04464FF414
:101180007A712878B1FBF0F00A490968B1FBF0F0F8
:1011900000F02EFB48B9102C07D200222146501E29
:1011A00000F066F800206C6070BD012070BD00008A
:1011B000700000207C000020254808B5816941F0BE
:1011C00001018161816901F001010091C16941F072
:1011D0008051C161C069002200F08050009002215E
:1011E0006FF00B0000F044F8002203216FF00A00BA
:1011F00000F03EF8002204216FF0090000F038F8FA
:1012000000220521501F00F033F800220621101F94
:1012100000F02EF800220721901E00F029F800228D
:101220001146042000F024F8042000F015F80022F4
:101230001146052000F01CF8052000F00DF80548C7
:10124000416821F0E06141F00071416008BD00009B
:10125000001002400000014000F01F0201219140F7
:101260004009800000F1E020C0F800117047000044
:10127000F0B40E4B1B680C46C3F30223C3F1070501
:10128000042D00D90425191D072901D2002300E0EF
:10129000DB1E012606FA05F1491E214099409E40B9
:1012A000761E16403143F0BC01F04EBC0CED00E060
:1012B000064900F0070208684FF6FF03184040EAAD
:1012C0000220034A10430860704700000CED00E064
:1012D0000000FA052DE9F047DFF8548105460E4677
:1012E000D8F8000000F00700B0420CD2D8F8001087
:1012F00021F007013143C8F80010D8F8000000F0D1
:101300000700B0426FD128684A4C810712D54007C8
:1013100003D5606840F4E06060602878000703D57A
:10132000606840F4605060606068A96820F0F00078
:10133000084360602878C00744D06868012816D048
:101340002168022816D0890700294CDA616821F04B
:10135000030101436160FFF7FDFB6968074641F245
:10136000883001290ED00229814618D026E0216854
:101370008903E9E78901E7E7FFF7ECFBC11B494572
:1013800001D918E081466068C0F381000128F3D1DB
:1013900018E000BFFFF7DEFBC11B49450BD86068B2
:1013A000C0F381000228F5D10CE000BFFFF7D2FBAB
:1013B000C11B494502D90320BDE8F087606810F0E1
:1013C0000C0FF3D1D8F80010404601F00701B142EC
:1013D0000BD9016821F0070131430160006800F07A
:1013E0000700B04201D00120E6E72878400705D584
:1013F0006068E96820F4E0600843606028780007CE
:1014000006D56068296920F4605040EAC100606038
:1014100000F036F86168084AC1F30311515CC84016
:10142000064908600020FFF7A7FE0020C4E700007F
:101430000020024000100240004400087C00002010
:101440000448054900684968044AC1F30221515C17
:10145000C84070477C000020001002401044000883
:101460000448054900684968044AC1F3C221515C37
:10147000C84070477C000020001002401044000863
:1014800012A185B00FC98DE80F0014A0144A00689E
:1014900004905168134801F00C03042B10D0082B62
:1014A0000ED1C1F38343C9031DF803000AD5516867
:1014B00004AAC1F34041515C0A4A5043B0FBF1F029
:1014C00005B0704708494843FAE7000002030405E5
:1014D000060708090A0B0C0D0E0F10100102000080
:1014E0000010024000127A0000093D002DE9F84F7B
:1014F00004460078B94DC00748D06868C0F3810041
:10150000012807D06868C0F38100022809D1686803
:10151000C00306D52868800338D5606800286FD0DE
:1015200034E06068B0F5803F0BD010B1B0F5A02F6B
:1015300011D0286820F480302860286820F48020AA
:1015400002E0286840F480302860606888B1FFF7C6
:1015500001FB064609E0286840F480202860F0E797
:10156000FFF7F8FA801B642875D828688003F7D540
:101570000CE0FFF7EFFA064605E000BFFFF7EAFAD6
:10158000801B6428F0D828688003F7D42078944E14
:1015900080074FF001094FF000083BD5686810F054
:1015A0000C0F07D06868C0F38100022809D1686871
:1015B000C00306D42868800714D5206901281FD1EC
:1015C00010E02069B0B1C6F80090FFF7C3FA0746F3
:1015D00005E000BFFFF7BEFAC01B0228C4D8286888
:1015E0008007F7D52868616920F0F80040EAC1005B
:1015F00028600FE0C6F80080FFF7ACFA074606E067
:10160000E9E000BFFFF7A6FAC01B022823D828682C
:101610008007F7D4207800072CD57248A169D9B18A
:10162000C0F80090FFF796FA074604E0FFF792FA39
:10163000C01B02280FD8686A8007F7D56A484FF4A4
:10164000FA510068B0FBF1F0009000BF0098411E15
:101650000091FAD20EE080E0C0F80080FFF77AFA3D
:10166000074604E0FFF776FAC01B022875D8686ABF
:101670008007F7D42078400760D5E8690027C000CC
:1016800008D4E86940F08050E861E869012700F07B
:101690008050009055480168C90513D401688346FD
:1016A00041F480710160FFF755FA824606E000BF01
:1016B000FFF750FAA0EB0A0064284ED8DBF80000D0
:1016C000C005F5D5E06801280AD008B1052813D077
:1016D000286A20F001002862286A20F0040002E055
:1016E000286A40F001002862E06841F2883B98B126
:1016F000FFF730FA82460BE0286A40F004002862C7
:10170000EEE700BFFFF726FAA0EB0A0159455AD8C9
:10171000286A8007F6D50CE0FFF71CFA824605E040
:10172000FFF718FAA0EB0A0159454CD8286A800740
:10173000F6D41FB1E86920F08050E861E06988B311
:101740006968C1F38101022945D00228C6F860808A
:1017500004D0FFF7FFF9044638E034E0FFF7FAF968
:10176000074604E0FFF7F6F9C01B02282BD82868CB
:101770008001F7D4206AB0F5803F05D16868A16880
:1017800020F4003008436860D4E908010843696820
:1017900021F4741108436860C6F86090FFF7DAF925
:1017A000044606E015E000BFFFF7D4F9001B02284D
:1017B00009D828688001F7D50BE000BFFFF7CAF908
:1017C000001B022802D90320BDE8F88F2868800199
:1017D000F4D40020F8E70120F6E7000000100240F2
:1017E00000004242800442427C0000200070004021
:1017F00010B5401EB0F1807F01D3012010BD4FF025
:10180000E02460610F21601701F09EF90020A061C3
:1018100007202061002010BD7047704730B590F858
:101820003C20012A20D0012280F83C20022380F8AD
:101830003D3003685C6824F070045C6003685C6899
:101840000D682C435C6003689C6824F080049C60F5
:1018500003689C6849680C439C6080F83D20002127
:1018600080F83C10084630BD022030BD10B50400A1
:1018700003D094F83D0010B107E0012010BD002016
:1018800084F83C00204600F00DF8022084F83D006A
:10189000211D206801F058FA012084F83D00002045
:1018A00010BD000008B500680B49884212D10B48F2
:1018B000C16941F00401C161C069002200F0040067
:1018C000009011461E20FFF7D3FCBDE808401E2003
:1018D000FFF7C2BC08BD0000000800400010024035
:1018E00070B5044690F83C00012817D0012584F813
:1018F0003C50022084F83D002068826822F0770284
:1019000022F47F4282600868502837D00DDC2028FE
:1019100059D005DC88B3102841D151E0022070BDB8
:10192000302853D040283AD13FE060282ED070288C
:101930000BD0B0F5805F03D0B0F5005F2FD110E081
:101940002068816821F0070115E0CB68D1E9012109
:10195000206801F03AFA2168886840F077008860D2
:101960001DE0CB68D1E90121206801F02EFA206842
:10197000816841F48041816011E01EE0CA684968D5
:10198000206801F0D7FA5021206806E0CA6849684B
:10199000206801F0E0FA6021206801F020FA84F864
:1019A0003D50002084F83C0070BDCA68496820683A
:1019B00001F0C0FA40212068EFE700212068ECE741
:1019C00010212068E9E720212068E6E7302120681F
:1019D000E3E7704770B50446006801694FF0000501
:1019E000C943890715D4C168C943890711D4E91EC1
:1019F000016101202077206880698007204602D09D
:101A0000FFF7E7FF04E000F0BFF8204600F041F9DF
:101A1000257720680169C943490717D4C168C943BC
:101A2000490713D46FF00401016102202077206878
:101A3000806910F4407F204602D0FFF7CAFF04E01F
:101A400000F0A2F8204600F024F92577206801690B
:101A5000C943090716D4C168C943090712D46FF0F6
:101A600008010161042020772068C06980072046B2
:101A700002D0FFF7AEFF04E000F086F8204600F049
:101A800008F9257720680169C943C90617D4C168D8
:101A9000C943C90613D46FF01001016108202077F3
:101AA0002068C06910F4407F204602D0FFF791FF04
:101AB00004E000F069F8204600F0EBF82577206894
:101AC0000169C943C90708D1C168C943C90704D11D
:101AD000891E0161204600F0F5F820680169C943BC
:101AE000090609D4C168C943090605D46FF080010D
:101AF00001612046FFF790FE20680169C94349064D
:101B000009D4C168C943490605D46FF04001016199
:101B1000204600F0D8F820680169C94389060BD433
:101B2000C168C943890607D46FF0200101612046CE
:101B3000BDE87040FFF771BE70BD000000B585B014
:101B40000021009101910291039100680B498842A4
:101B500011D10B48816941F00801816180696946B2
:101B600000F00800049040200090022001900390B3
:101B70000448FEF70BFF05B000BD00000008004060
:101B800000100240000C0140704770B5044690F808
:101B90003C000D4601280DD0012684F83C6002204F
:101BA00084F83D0042B1042A18D0082A2AD00C2A11
:101BB0004DD139E0022070BD206801F019F920688C
:101BC000816941F0080181612068816921F0040187
:101BD0008161206881692A69114311E0206801F060
:101BE0002FF92068816941F4006181612068816971
:101BF00021F480618161206881692A6941EA0221BA
:101C0000816124E0206801F047F92068C16941F052
:101C10000801C1612068C16921F00401C161206827
:101C2000C1692A69114311E0206801F061F9206857
:101C3000C16941F40061C1612068C16921F480611A
:101C4000C1612068C1692A6941EA0221C16184F841
:101C50003D60002084F83C0070BD10B5040003D046
:101C600094F83D0010B107E0012010BD002084F879
:101C70003C00204600F00CF8022084F83D00211DB5
:101C8000206801F061F8012084F83D00002010BDBB
:101C90007047704710B504460068012201F08AF8C9
:101CA00007492068884203D1416C41F400414164F6
:101CB0002068016841F001010160002010BD0000B2
:101CC000002C01407047704710B5002001F0C4FEA1
:101CD0000A21084601F036FF04480123D0E900122A
:101CE000BDE8104002A001F0BFBF00006800002066
:101CF00055415254204552524F52210070B502684E
:101D000004461068D168536910F00F0F50D003F0EB
:101D1000010501F4907635435DD0C20705D0CA05B0
:101D200003D5E26B42F00102E263420705D5DA0710
:101D300003D0E26B42F00202E263820705D5DA07C4
:101D400003D0E26B42F00402E263020705D5DA0732
:101D500003D0E26B42F00802E263E26B002A33D068
:101D6000800604D5880602D5204601F01CF92068BB
:101D70004069E16BC0F38010090700D428B3204606
:101D800001F003F92068416949061AD5416921F03B
:101D900040014161606BA0B11B494163606BFEF77C
:101DA0000FFD002810D0606B416BBDE87040084704
:101DB000830610D58B060ED52046BDE8704001F095
:101DC000F2B82046FFF780FF70BD2046FFF77CFF8A
:101DD0000020E06370BD030606D50B0604D520463F
:101DE000BDE8704001F0E2B94006F3D54806F1D5F0
:101DF000D168204621F04001D160202184F83910BB
:101E000000F021F970BD00007B2F000870B50400C0
:101E100004D094F83900002510B106E0012070BD0F
:101E200084F83850204600F023F8242084F8390044
:101E30002068C16821F40051C160204601F0FEF81D
:101E40002068016921F4904101612068416921F015
:101E50002A0141612068C16841F40051C160E56315
:101E6000202084F8390084F83A00002070BD00007A
:101E700030B585B000240094019402940394006866
:101E8000184988422CD11848816941F48041816108
:101E9000816901F480410491816941F0040181610B
:101EA0008069124D00F0040004904FF4007000901F
:101EB000022001900320039069462846FEF766FD44
:101EC0002815CDE90004694628460294FEF75EFD18
:101ED000002211462520FFF7CBF92520FFF7BCF99A
:101EE00005B030BD0038014000100240000801403C
:101EF00090F83A30202B22D1F9B1F2B190F8383075
:101F0000012B1CD081628285C2850021C1632222FF
:101F100080F83A2080F838100168CA6842F480726C
:101F2000CA6001684A6942F001024A610068C168FA
:101F300041F02001C160002070470120704702205D
:101F40007047000010B500681749884224D1174C2B
:101F5000174922780A2A05D0E06D322802DA0A549D
:101F6000401C04E0E26D0020114401F8010CE06522
:101F700010A10F48FEF706F9E06212A10C48FEF727
:101F800001F9206313A10A48FEF7FCF8A06317A12A
:101F90000748FEF7F7F8E063BDE810400122034967
:101FA0001848FFF7A5BF00000038014000000020DE
:101FB000840000205749464920444953434F4E4E20
:101FC000454354002F726573657420485454502F54
:101FD000312E31002F7375636365737366756C20E2
:101FE000485454502F312E31000000002F756E736D
:101FF00075636365737366756C20485454502F3154
:102000002E310000B006002090F83930202B18D176
:10201000A9B1A2B190F83830012B12D001628284AC
:10202000C2840021C163212280F8392080F8381051
:102030000068C16841F08001C16000207047012044
:102040007047022070477047002001F005FD0A210B
:10205000084601F077FD04480123D0E9001203A0EF
:1020600001F002FEFEE700006800002048415244F3
:102070004641554C54204552524F52210000000019
:102080000148FEF76FBD0000540B00200148FEF729
:10209000D1BD0000540B002010B5406A01680A68E9
:1020A00022F480620A6000214185426B5163826B99
:1020B000516390F83D302022602B80F83D2080F85D
:1020C0003E1007D001680A6822F001020A60FEF79C
:1020D000A9FE10BD016401680A6822F001020A60CD
:1020E000FEF73EFD10BD000070B590F83D100446AF
:1020F00000252026006829292DD02A292BD094F8E4
:102100003D10602904D04168090501D484F83D6080
:10211000256384F83E50016821F400610160206865
:102120004168090537D5416821F400614160606B61
:10213000344990F82120012A12D04163606BFEF7E8
:102140003FFB38B32068016821F00101016084F889
:102150003D60606B1CE02563282184F83D10DAE7C0
:10216000A06B4163A06BFEF72BFB98B1206841691F
:10217000C943490604D40169606A421C6262017065
:102180002068016821F00101016084F83D60A06BC6
:10219000416B88470FE094F83D1060291DD04169DC
:1021A000C943490604D40169606A421C6262017035
:1021B0002046FEF737FE94F83D0028280CD1206C0D
:1021C000400709D51048E062256384F83D6084F833
:1021D0003E502046FEF7C8FE70BD84F83D60256481
:1021E0004169C943490604D40169606A421C6262BC
:1021F00001702068016821F0010101602046FEF7AE
:10220000AFFCD8E7992000080000FFFF01684A6989
:10221000D24352050CD46FF480624A6104210164F8
:10222000002140F8301F20224273017301207047C3
:102230000020704710B5C26A448D2F4B0168032CF3
:1022400003D0448D022C15D00AE0042A03D0082ABA
:1022500001D09A4203D10A6822F480620A600168C0
:102260000A69416A4B1C43620A70418D491E4185CF
:10227000002010BD042A12D0082A10D09A420ED095
:10228000022A0A6802D022F4806201E042F48062ED
:102290000A6001684A6822F440724A6008E04A68AD
:1022A00022F440724A6001680A6842F400720A60CF
:1022B00001680A69416A4B1C43620A70418D491EDC
:1022C000418501680A69416A4B1C43620A70418D6D
:1022D000491E4185202180F83D100021016390F8BE
:1022E0003E2080F83E10402A02D0FEF73EFEBFE7B7
:1022F000FEF73DFEBCE700000000FFFF10B590F8C0
:102300003D1022294CD1418D032909D901680A6960
:10231000416A4B1C43620A70418D491E41853FE072
:10232000022909D0032907D0C16A022901680A6875
:1023300018D022F4806217E0C16A022901680A6895
:1023400007D022F480620A6001680A6842F40062E1
:1023500001E042F480620A600068416821F4806113
:1023600041601DE042F480620A6001684A6822F41C
:10237000E0624A6001680A69416A4B1C43620A7064
:10238000418D491E4185202180F83D1000210163C7
:1023900090F83E2080F83E10402A03D0FEF7E5FD7D
:1023A000002010BDFEF7E3FDFAE710B5C26A90F811
:1023B0003D10212921D1418D49B1416A4A1C426217
:1023C000026809781161418D491E418515E020237D
:1023D0000021042A13D0082A11D012F5803F0ED014
:1023E0000268546824F4E06454601122026380F8A7
:1023F0003E1080F83D30FEF7B9FD002010BD0268A8
:10240000546824F4E06454600268146844F400746E
:102410001460016380F83D3090F83E2080F83E1053
:10242000402AE8D1FEF7A4FDE7E7000010B590F8D8
:102430003D1090F83E30C26A048D24B1212934D079
:10244000402B30D074E02129FAD120230021042A26
:1024500013D0082A11D012F5803F0ED002685468BC
:1024600024F4E06454601122026380F83E1080F886
:102470003D3000BFFEF77AFD5AE00268546824F44C
:10248000E06454600268146844F4007414600163EA
:1024900080F83D3090F83E2080F83E10402AE9D187
:1024A000FEF766FD44E0222942D1418D21B190F82A
:1024B0003E10402906D032E00068416821F4806176
:1024C000416035E0016D31B1016D012911D0016D1F
:1024D000022915D02CE0C16C0129816C02D0C1F316
:1024E000072108E00268C9B21161016D891C01650C
:1024F0001EE0816CC9B202681161016D491CF6E7EA
:1025000090F83D10222904D090F83D10212906D0E2
:102510000EE00068016841F48071016008E0416AE2
:102520004A1C4262026809781161418D491E418549
:10253000002010BD78B590F83E50C26A046B90F848
:102540003D6000230168222E06D1066D0EB9402D94
:1025500002D0056D25B107E04869886900901CE04C
:102560000569B5F5404F1AD0458D85B3458D012DD0
:1025700020D0428D022A4AD00A6842F480620A6062
:1025800001684A68120503D54A6842F480524A60DD
:1025900001684A69896900910365002078BD4A692C
:1025A0008A6900920A6842F480720A60016D491CCF
:1025B0000165F2E712F5803F0AD0042A21D0082AEB
:1025C0001FD0122C1DD0C26A022A09D114E00BE0E0
:1025D0000A6822F480620A6001684A68120503D51D
:1025E0000A6822F480620AE04A698A6900920A68ED
:1025F00042F400720A60CFE70A6842F480620A601F
:10260000C6E70A6822F480620A600168ECE7C26AE1
:10261000022A0A680BD042F400620A6001684A6923
:102620008A6900920A6822F480620A6006E042F435
:1026300080620A6001684A698969009101684A6894
:102640001205A9D54A6842F480524A60A4E790F87E
:102650003E10402909D00169B1F5804F10D0016DBD
:1026600099B1016D012915D01CE0016D19B9416CBA
:1026700001F0FE0114E0416CC9B241F001010FE02C
:1026800090F83D102129F6D1F1E7416CF02201F4D8
:10269000407103E0416CF12201F4407142EAD11132
:1026A00000680161002070472DE9F8430446006886
:1026B0000D46DDE9089701689846164641F4807199
:1026C00001604B4600224FF001112046009700F0B8
:1026D00012F9E8B9216805F0FE0008613B464A4658
:1026E0001849204600F038F928B1206C04280FD191
:1026F0000120BDE8F88320684169806900903A466E
:102700004946204600F06CF920B1206C042813D013
:102710000320EEE7F5B2B8F1010F09D02168300AC5
:1027200008613A464946204600F05AF90028ECD1A3
:10273000206805610020DCE72068016841F4007131
:102740000160D5E7020001002DE9F04190F83D401D
:10275000C26A00231C4F202601686FF48065042A9A
:1027600001D0082A01D1282C05D0212C17D04D6189
:102770000020BDE8F081C7624A6822F4E0624A6046
:1027800001684D6101680A6822F480620A6003638F
:1027900080F83D6080F83E30FEF7E6FBE8E7C76270
:1027A0002122026380F83D6080F83E304A6822F4BE
:1027B000E0624A6001684D6101680A6822F4806243
:1027C0000A60FEF7BEFCD3E70000FFFF38B590F8C3
:1027D0003D2001684B6823F4E0634B6003680021EF
:1027E0005C6900941C6844F001041C6003681C6868
:1027F00024F480641C6003685C6824050BD590F8A1
:102800003D40222C2BD090F83D402A2C27D0446B01
:10281000246864684485448DE4B15C69E4436407DA
:1028200007D41C69436A5D1C45621C70438D5B1EA6
:10283000438503685C69E443640607D41C69436A02
:102840005D1C45621C70438D5B1E4385036C43F029
:1028500004030364036C23B1FFF746FC1FE0846BA1
:10286000D6E72023282A09D02A2A07D0292A05D0EA
:10287000046B222C0CD0222A0AD010E0094AC26232
:10288000016380F83D3080F83E10FEF76DFB06E0F6
:10289000016380F83D3080F83E10FEF751FC0020C7
:1028A00038BD00000000FFFF70B516460D46044617
:1028B0001AE02046FFF7AAFC08B1012070BD681C91
:1028C00012D025B1FEF746F9801BA8420CD954F866
:1028D000400F40F0200044F8100900202060202123
:1028E00061732073032070BD20684069C0434007B6
:1028F000DFD4002070BD2DE9F0471E4690460D46FE
:102900000446C1F30747DDF8209012E0701C10D098
:102910002EB1FEF71FF9A0EB0900B04209D9002043
:1029200044F8300F20216173A07320730320BDE8A9
:10293000F0872068012F0AD0806925EA0000000492
:10294000000C06D000214145E0D00020EFE74069AF
:10295000F3E70121F7E700002DE9F0479A46914699
:102960000D46044600264FF02008C1F307472AE031
:1029700020684069C043400512D42068016841F4D2
:102980000071016021686FF4806048610420206458
:10299000266384F83D8084F83C600120BDE8F08720
:1029A000B9F1FF3F0FD0B9F1000F05D0FEF7D2F813
:1029B000A0EB0A01494506D944F8306F84F80D8030
:1029C00026730320EAE72068012F07D0D0F818000B
:1029D00025EA00000004000CE0D0C9E74069F7E7F1
:1029E00070B516460D4604461AE02046FFF70EFC69
:1029F00008B1012070BD681C12D025B1FEF7AAF8FD
:102A0000801BA8420CD954F8400F40F0200044F835
:102A1000100900202060202161732073032070BD05
:102A200020684069C0430006DFD4002070BD00006C
:102A300030B585B0002418480094019402940394A2
:102A4000816941F020018161816901F020010491D7
:102A5000816941F004018161816901F004010491FF
:102A6000816941F00801816180690C4D00F0080026
:102A70000490002214212846FEF766F814200090E6
:102A80000120CDE901040220039069462846FDF7A4
:102A90007DFF05B030BD000000100240000801407D
:102AA00010B58EB000240794089409940A940B94EE
:102AB0001C2168460C94FDF74EFB1848164901602E
:102AC0009F21C0E9011440F2E731C0E90314846199
:102AD000FEF7CCFE4FF48050079007A90F48FEF791
:102AE000FFFE0E48FFF7B9F80B940BA90B480C94A6
:102AF000FEF794FE602000904FF4FA70CDE90104D7
:102B00000022694605480494FFF73FF80348FFF7A1
:102B100015F80EB010BD000000080040A80B002002
:102B200000F000F8BFF34F8F05480168054A01F433
:102B3000E06111430160BFF34F8F00BFFDE700006C
:102B40000CED00E00400FA050907090E002806DA7A
:102B500000F00F0000F1E02080F8141D704700F134
:102B6000E02080F800147047FFF7DCFF7047FFF7A4
:102B7000D9FF000070B50D4601460E48FDF71BFB5E
:102B80000DA10C48FDF7F2FA0A48FDF70DFB0B4CBE
:102B9000084982B2A06501F2FA50FFF735FA0548FC
:102BA00007A13238FDF7EEFAA0622846FDF754FE81
:102BB000A06A70BDB60000200D0A000000000020D1
:102BC0004F4B000070B50C46014615461348FDF703
:102BD000F2FA224612A1134800F022FB11490F48D5
:102BE000FDF7C4FA10A10D48FDF7C0FA0B48FDF738
:102BF000DBFA0C4C0949203C82B2A06501F2FA5084
:102C0000FFF702FA054809A13238FDF7BBFAA062C6
:102C10002846FDF721FEA06A70BD0000B600002026
:102C200025640000200000200D0A00004F4B00002A
:102C300070B50E460446154614A11748FDF7BBFAB9
:102C400021461548FDF792FA14A11348FDF78EFAB4
:102C500031461148FDF78AFA11A10F48FDF786FAAF
:102C60000D48FDF7A1FA0F4C0B4982B2A06501F2A5
:102C7000FA50FFF7C9F908480BA13238FDF782FA7C
:102C8000A0622846FDF7E8FDA06A70BD41542B43C1
:102C9000574A41503D220000B6000020222C22005D
:102CA000220D0A00000000204F4B0000FEF74ABA38
:102CB00010B590B028216846FDF74DFA14210AA8F6
:102CC000FDF749FA02200090012004901020002412
:102CD000059007946846FEF709FC0F20CDE90A0429
:102CE0000C940D9400210AA80E94FEF7F3FA10B08C
:102CF00010BD00000D48016841F00101016041680C
:102D00000B4A1140416001680A4A114001600168A4
:102D100021F480210160416821F4FE0141604FF4FB
:102D20001F0181600449C003086070470010024021
:102D30000000FFF8FFFFF6FE08ED00E00148FEF797
:102D400049BE0000A80B0020F0B50268164B174CD6
:102D5000174D4FF08047984205D0B84203D0A042AB
:102D600001D0A84203D122F070064A68324398424B
:102D700005D0B84203D0A04201D0A84203D122F42A
:102D80004074CA68224322F080044A6922430260E8
:102D90008A68C2620A688262984201D10969016345
:102DA00001214161F0BD0000002C01400004004001
:102DB0000008004010B50123046A8B409C43046264
:102DC000036A8A401343036210BD10B5846842EA67
:102DD000032224F47F440A432243826010BD8268A8
:102DE00022F070020A4342F0070181607047000040
:102DF00030B5026A22F001020262026A4368846905
:102E000024F073050C682C4322F002058A682A43DB
:102E10000A4DA8420BD122F00805CA6823F440737A
:102E20002A434D6922F004021D438B692B43436002
:102E3000846149684163026230BD0000002C01409A
:102E400030B5026A22F010020262026A43688469A5
:102E50000D6824F4E64444EA05248D6822F020023B
:102E600042EA05120B4DA8420ED1CD6822F0800235
:102E700042EA05124D6923F4406343EA85038D69F4
:102E800022F0400243EA850343608461496881631C
:102E9000026230BD002C014030B5026A22F480721B
:102EA0000262036A4268C46923F4007324F0730564
:102EB0000C682C438D6843EA05230C4DA8420ED1C3
:102EC000CD6823F4006343EA05234D6922F44052A0
:102ED00042EA05128D6923F4806342EA05124260DA
:102EE000C4614968C163036230BD0000002C014029
:102EF00030B5026A22F480520262046A4268C369F1
:102F00000D6823F4E64343EA05238D6824F4005456
:102F100044EA0534064DA84204D14D6922F48042AA
:102F200042EA85124260C36149680164046230BDAF
:102F3000002C014010B5036A046A24F00104046205
:102F4000846924F0F00444EA021423F00A020A43DC
:102F50008461026210BD10B5036A23F0100303629E
:102F60008369046A23F4704343EA023224F0A00325
:102F700043EA01118261016210BD10B5406A00216F
:102F8000C185C184FEF7A0FE10BD0168CA6822F4A5
:102F90009072CA6001684A6922F001024A612021E8
:102FA00080F83A10704710B590F83A10222901D0F5
:102FB000022010BD8168B1F5805F11D00169002940
:102FC00001681FD0496801F07F03816A4A1C826250
:102FD0000B70C18D491E0904090CC18518D02BE066
:102FE0000269816A002A0268526805D0D2B20A805A
:102FF000816A491C8162ECE7C2F308020A80816A97
:10300000891CF7E74A68816A4B1C83620A70E0E713
:103010000168CA6822F02002CA600168CA6822F406
:103020008072CA6001684A6922F001024A61202167
:1030300080F83A10FEF786FF002010BD2DE9F04120
:10304000044600680169E26821F4405111430161BE
:103050002169A0680843616908432168CA6841F290
:103060000C639A430243CA6020684169A26921F453
:103070004071114341614C492068642532268842E1
:103080003CD1FEF7EDF900EBC00101EB00106168E7
:103090008900B0FBF1F7FEF7E3F900EBC00101EBAB
:1030A00000106168B0468900B0FBF1F0B0FBF5F0AC
:1030B0006FF01801484307EB800106EB0110B0FBED
:1030C000F5F000F0F006FEF7CBF900EBC00101EBE4
:1030D000001061688900B0FBF1F0B0FBF5F006EB81
:1030E0000016FEF7BDF900EBC00101EB00106168AE
:1030F0008900B0FBF1F7FEF7B3F93BE0FEF7A0F96A
:1031000000EBC00101EB001061688900B0FBF1F732
:10311000FEF796F900EBC00101EB00106168B046C4
:103120008900B0FBF1F0B0FBF5F06FF018014843F7
:1031300007EB800106EB0110B0FBF5F000F0F006A4
:10314000FEF77EF900EBC00101EB00106168890019
:10315000B0FBF1F0B0FBF5F006EB0016FEF770F9EE
:1031600000EBC00101EB001061688900B0FBF1F7D2
:10317000FEF766F900EBC00101EB00106168890001
:10318000B0FBF1F0B0FBF5F06FF01801484307EB2E
:10319000800108EB0110B0FBF5F0216800F00F0092
:1031A00030448860BDE8F0810038014090F8391063
:1031B000212901D0022070478168B1F5805F016A42
:1031C0000BD04A1C0262026809785160C18C491E0A
:1031D0000904090CC1840ED017E009880268C1F304
:1031E0000801516001690029016A02D0491C01628D
:1031F000ECE7891CFBE70168CA6822F08002CA601C
:103200000068C16841F04001C160002070470000C3
:103210000148FEF773BD0000B0060020FFF782FCF6
:103220000FB4084B10B504A902AA039800F01CF8CB
:10323000044602A9002000F0C1F8204610BC5DF849
:1032400014FB0000BD33000802E008C8121F08C1CB
:10325000002AFAD170477047002001E001C1121F17
:10326000002AFBD1704700002DE9FF4F89B09B4633
:103270000446002506E025280BD05A460B999047B6
:10328000641C6D1C20780028F5D10DB02846BDE8DF
:10329000F08F0027B8460122474900E0074314F8A1
:1032A000013F203B02FA03F00842F7D120782E2894
:1032B00019D114F8010F47F004072A280ED06FF037
:1032C0002F022078A0F1300109290CD808EB8801E1
:1032D00002EB410100EB0108641CF2E70A98641C50
:1032E00050F8048B0A9020780028CED0642808D0AB
:1032F000692806D075281ED05A460B9990476D1C38
:1033000058E00A994FF00A0901C90A91002802DA27
:1033100040422D2102E0390504D52B218DF82010E3
:10332000012103E0F90704D02021F7E78A4608AE1F
:103330000DE00021FAE70A994FF00A0901C90A9144
:10334000F7E74946FCF762FF303106F8011D002817
:10335000F7D1ADEB060000F12009780701D44FF05A
:103360000108C84502DDA8EB090000E00020804606
:10337000002706E008A85A46C05D0B9990476D1CCF
:103380007F1C5745F6DB04E030205A460B999047E6
:103390006D1CB8F10001A8F10108F5DC05E016F894
:1033A000010B5A460B9990476D1CB9F10001A9F128
:1033B0000109F4DC641C65E7092801000A68531C54
:1033C0000B6010707047000010B532210348FCF705
:1033D000C2FE03490020C86510BD00008400002023
:1033E000000000200FB47D2000994863C00004B0A5
:1033F000FDF732BA0FB4002110B502A8FEF74AFC5F
:1034000010BC5DF814FB0000FDF7A4FEFFF750FCB4
:10341000FFF70EFB18481749002401601749C0E95F
:1034200001144FF48041C0E9034144618461C461E7
:103430000462FDF7F9FC1348114901604FF416517D
:10344000C0E901140C21C460C0E904418461C46175
:10345000FEF7DCFCFFF724FB00F084F801220A49A8
:103460000848FEF745FDFCF7FDFE00BFFDF714F828
:10347000FCE7000000540040540B0020A08601002F
:1034800000380140B0060020000000200FB41920D1
:10349000009948634FF47A7004B0FDF7DDB900007D
:1034A00010B5002000F0D8FA0A21084600F04AFBC7
:1034B000194C012319A0D4E9001200F0D5FB142106
:1034C0000F2000F03FFBD4E90012012317A000F009
:1034D000CBFB1E210A2000F035FBD4E900120123AA
:1034E00014A000F0C1FB28210F2000F02BFBD4E931
:1034F0000012012313A000F0B7FB32210F2000F0CF
:1035000021FBD4E90012012311A000F0ADFBBDE8BE
:10351000104000F01DBB000068000020436F6E6E7D
:10352000656374656420546F000000005749464984
:103530002100000043616E20436F6E6E656374204E
:10354000546F0000446576696365205769746800AC
:103550004150204F7220537461742E204D6F64656A
:103560000000000070B500F087FA002000F074FA47
:103570000021142000F0E6FA3D4C01233DA0D4E9DF
:10358000001200F071FB0A21232000F0DBFAD4E9DD
:10359000001201233BA000F067FB1E21142000F065
:1035A000D1FAD4E90012012339A000F05DFB2821F3
:1035B000232000F0C7FAD4E90012012337A000F05D
:1035C00053FB00F0C5FA4FF47A752846FDF744F92D
:1035D000002000F041FA0021232000F0B3FAD4E9E2
:1035E0000012012330A000F03FFB0A21322000F03E
:1035F000A9FAD4E9001201232EA000F035FB19210D
:10360000232000F09FFAD4E9001201232BA000F040
:103610002BFB28211E2000F095FAD4E9001201238B
:1036200029A000F021FB32212D2000F08BFAD4E9F3
:103630000012012328A000F017FB00F089FA2846A9
:10364000FDF70AF9002000F007FA1E21142000F00F
:1036500079FAD4E90012012322A000F005FB00F062
:1036600077FA24480168BDE870402348FCF77EBD26
:10367000680000204765627A6520546563686E695A
:1036800063616C00556E69766572736974790000C8
:10369000456C656374726F6E69637300456E67692C
:1036A0006E656572696E67005468652046696E6173
:1036B0006C00000050726F6A656374002D20323018
:1036C0003139202D00000000536572686174205369
:1036D0004546455200000000313431303234303438
:1036E00030000000496E697469616C697A696E67BF
:1036F0002E2E2E0014000020F00A002010B500200D
:1037000000F0AAF90A21084600F01CFA194C01231E
:1037100019A0D4E9001200F0A7FA14210F2000F03C
:1037200011FAD4E90012012317A000F09DFA1E211E
:103730000A2000F007FAD4E90012012315A000F0D6
:1037400093FA28210F2000F0FDF9D4E9001201239B
:1037500014A000F089FA32210F2000F0F3F9D4E927
:103760000012012312A000F07FFABDE8104000F023
:10377000EFB90000680000204E6F7420436F6E6E3A
:103780006563746564000000546F20574946492101
:103790000000000043616E20436F6E6E656374200D
:1037A000546F00004465766963652057697468004A
:1037B0004F6E6C79204150204D6F64650000000011
:1037C00010B5002000F048F90A21084600F0BAF9C7
:1037D0000F4C01230FA0D4E9001200F045FA192183
:1037E0000A2000F0AFF9D4E9001201230BA000F089
:1037F0003BFA28210A2000F0A5F9D4E900120123A0
:1038000009A000F031FABDE8104000F0A1B90000B5
:10381000680000205061796D656E74004861732006
:103820004265656E000000005375636365737366DF
:10383000756C6C210000000010B5002000F00CF940
:103840000A21084600F07EF90F4C01230FA0D4E9AD
:10385000001200F009FA19210A2000F073F9D4E9E6
:10386000001201230BA000F0FFF928210A2000F02C
:1038700069F9D4E90012012309A000F0F5F9BDE8C7
:10388000104000F065B90000680000205061796DBB
:10389000656E7400486173204265656E000000002B
:1038A000556E7375636365737366756C6C21000088
:1038B00010B5002000F0D0F80A21084600F042F9C7
:1038C0001C4C01231CA0D4E9001200F0CDF91E21EC
:1038D0000A2000F037F9D4E9001201231BA000F000
:1038E000C3F91E21322000F02DF91A484FF00103D0
:1038F0000068012812D0D4E9001217A000F0B4F932
:1039000032210A2000F01EF9012316A0D4E900128A
:1039100000F0AAF9BDE8104000F01AB9D4E900128D
:10392000124800F0A1F932210A2000F00BF901231E
:103930000FA0EBE7680000204465766963652049C5
:10394000732052656164792100000000574946499F
:103950003A000000500000204E6F7420436F6E6EDE
:10396000656374004D6F64653A415000F00A0020B1
:103970004D6F64653A41502B5354410010B50020FF
:1039800000F06AF80A21142000F0DCF8144C01233E
:1039900014A0D4E9001200F067F91421232000F0EC
:1039A000D1F8D4E90012012311A000F05DF928211B
:1039B000142000F0C7F8D4E90012012310A000F091
:1039C00053F93221232000F0BDF8D4E9001201237D
:1039D0000EA000F049F9BDE8104000F0B9B80000B1
:1039E0006800002057494649205741530000000015
:1039F000444953434F4E4E45435445442100000033
:103A0000547279696E6720546F0000005265636FCD
:103A10006E6E65637400000070B5802813D2402973
:103A200011D20B4B012401F007051E79AC40094B64
:103A3000C90800EBC1100EB132B101E0012A03D078
:103A4000195CA143195470BD195C2143FAE70000C9
:103A500060000020F006002010B5064A00214FF457
:103A6000806328B1FF245454491C9942F9D310BDF6
:103A70000024F8E7F006002010B56420FCF7ECFE07
:103A8000AE2000F0CFF8202000F0CCF8102000F09D
:103A9000C9F8B02000F0C6F8C82000F0C3F8002034
:103AA00000F0C0F8102000F0BDF8402000F0BAF897
:103AB000812000F0B7F8FF2000F0B4F8A12000F05A
:103AC000B1F8A62000F0AEF8A82000F0ABF83F2037
:103AD00000F0A8F8A42000F0A5F8D32000F0A2F888
:103AE000002000F09FF8D52000F09CF8F02000F0B6
:103AF00099F8D92000F096F8222000F093F8DA2007
:103B000000F090F8122000F08DF8DB2000F08AF829
:103B1000202000F087F88D2000F084F8142000F0B9
:103B200081F8AF2000F07EF80020FFF795FF00F04D
:103B30000FF803480021018041800121417110BD2F
:103B400060000020014A1080518070476000002012
:103B500070B50C4D002400BF04F1B000C0B200F0FD
:103B600061F8002000F05EF8102000F05BF805EB33
:103B7000C410802100F068F8641CE4B2082CEBD378
:103B800070BD0000F00600202DE9FF4F8346244859
:103B90009246CEB202883244802A06D281464088BC
:103BA000C1F307273844402803D3002004B0BDE800
:103BB000F08F002528E000BFABF1200000FB07508C
:103BC00000243AF810801CE008FA04F0000409D53B
:103BD00099F8021099F8000029442044C9B2C0B2F3
:103BE000039A0BE00398C0B15FF0000299F802104D
:103BF00099F8000029442044C9B2C0B2FFF70CFF75
:103C0000641CA642E0D86D1CAF42D5D8B9F80010AC
:103C100058463144A9F80010C8E70122E6E7000041
:103C20006000002001B584B001214FF0FF3204A8EC
:103C30008DE807000B46002278210248FDF79AF92B
:103C400005B000BD540B00200EB54FF0FF3289B215
:103C50008DE807000123402278210248FDF78AF908
:103C60000EBD0000540B0020F0B51D460E46174651
:103C700004460AE02B463A463146FFF785FF217895
:103C8000884201D0C8B2F0BD641C20780028F1D170
:103C9000C0B2F0BD00000000000000000000000005
:103CA00000000000000000000010001000100010D4
:103CB0000010001000000010000000000028002884
:103CC00000280000000000000000000000000000CC
:103CD00000240024007C00240048007C00480048A8
:103CE0000000000000380054005000380014005458
:103CF000005400380010000000200054005800302C
:103D000000280054001400080000000000100028E3
:103D10000028001000340048004800340000000073
:103D20000010001000100000000000000000000063
:103D300000000000000800100020002000200020EB
:103D400000200020001000080020001000080008DB
:103D500000080008000800080010002000100038CB
:103D6000001000280000000000000000000000001B
:103D70000000000000100010007C00100010000087
:103D80000000000000000000000000000000000033
:103D900000000010001000100000000000000000F3
:103DA00000000038000000000000000000000000DB
:103DB00000000000000000000000001000000000F3
:103DC0000008000800100010001000100020002063
:103DD0000000000000380044004400540044004447
:103DE00000440038000000000010003000500010B7
:103DF0000010001000100010000000000038004407
:103E000000440004000800100020007C00000000B6
:103E10000038004400040018000400040044003886
:103E20000000000000080018002800280048007C5E
:103E30000008000800000000007C004000400078FE
:103E40000004000400440038000000000038004472
:103E500000400078004400440044003800000000A6
:103E6000007C00040008001000100020002000204A
:103E700000000000003800440044003800440044C2
:103E800000440038000000000038004400440044B2
:103E9000003C000400440038000000000000000066
:103EA00000100000000000000000001000000000F2
:103EB00000000000000000100000000000000010E2
:103EC0000010001000000000000C00300040003026
:103ED000000C000000000000000000000000007C5A
:103EE0000000007C00000000000000000000000056
:103EF00000600018000400180060000000000000CE
:103F000000380044000400080010001000000010F9
:103F10000000000000380044004C0054005C0040E9
:103F20000040003800000000001000280028002891
:103F30000028007C00440044000000000078004499
:103F40000044007800440044004400780000000071
:103F50000038004400400040004000400044003869
:103F60000000000000700048004400440044004489
:103F70000048007000000000007C00400040007C11
:103F8000004000400040007C00000000007C004039
:103F90000040007800400040004000400000000069
:103FA0000038004400400040005C004400440038F9
:103FB00000000000004400440044007C0044004431
:103FC0000044004400000000003800100010001001
:103FD0000010001000100038000000000004000471
:103FE0000004000400040004004400380000000045
:103FF0000044004800500060005000480048004461
:104000000000000000400040004000400040004030
:104010000040007C000000000044006C006C005474
:1040200000440044004400440000000000440064D8
:10403000006400540054004C004C00440000000098
:104040000038004400440044004400440044003868
:104050000000000000780044004400440078004064
:1040600000400040000000000038004400440044CC
:10407000004400440054003800040000007800446C
:10408000004400440078004800480044000000005C
:1040900000380044004000300008000400440038AC
:1040A00000000000007C0010001000100010001044
:1040B00000100010000000000044004400440044D0
:1040C0000044004400440038000000000044004464
:1040D0000044002800280028001000100000000004
:1040E00000440044005400540054006C0028002890
:1040F00000000000004400280028001000100028E4
:10410000002800440000000000440044002800286B
:10411000001000100010001000000000007C0004DF
:1041200000080010001000200040007C000000008B
:1041300000180010001000100010001000100010F7
:1041400000100018002000200010001000100010C7
:1041500000080008000000000030001000100010EF
:104160000010001000100010001000300010002897
:1041700000280044000000000000000000000000D3
:10418000000000000000000000000000000000002F
:10419000000000FE002000100000000000000000F1
:1041A0000000000000000000000000000038004493
:1041B000003C0044004C003400000000004000407F
:1041C00000580064004400440064005800000000EF
:1041D0000000000000380044004000400044003867
:1041E00000000000000400040034004C00440044BF
:1041F000004C0034000000000000000000380044C3
:10420000007C00400044003800000000000C00105A
:10421000007C0010001000100010001000000000D2
:10422000000000000034004C00440044004C003406
:10423000000400780040004000580064004400443E
:104240000044004400000000001000000070001056
:10425000001000100010001000000000001000000E
:10426000007000100010001000100010001000E09E
:1042700000400040004800500060005000480044EA
:10428000000000000070001000100010001000106E
:104290000010001000000000000000000078005432
:1042A00000540054005400540000000000000000BE
:1042B0000058006400440044004400440000000032
:1042C000000000000038004400440044004400386E
:1042D000000000000000000000580064004400449A
:1042E0000064005800400040000000000034004C12
:1042F00000440044004C00340004000400000000AE
:1043000000580064004000400040004000000000F1
:10431000000000000038004400300008004400386D
:104320000000000000200020007800200020002075
:1043300000200018000000000000000000440044BD
:1043400000440044004C0034000000000000000065
:10435000004400440028002800280010000000004D
:1043600000000000005400540054006C0028002895
:1043700000000000000000000044002800100010B1
:104380000028004400000000000000000044004439
:10439000002800280010001000100060000000003D
:1043A000007C0008001000200040007C000000009D
:1043B0000018001000100010002000200010001055
:1043C0000010001800100010001000100010001065
:1043D000001000100010001000300010001000103D
:1043E000000800080010001000100030000000005D
:1043F00000000074004C00000000000000000000FD
:104400000000000000000000010203040607080984
:104410000000000001020304485454502F312E3193
:1044200020323030204F4B0D0A436F6E74656E742E
:104430002D547970653A20746578742F68746D6CAA
:104440000D0A436F6E6E656374696F6E3A20636C1C
:104450006F73650D0A0D0A09093C21444F435459F5
:1044600050452068746D6C3E09093C68746D6C3E63
:104470003C626F64793E3C63656E7465723E535472
:104480004D33322059656E6964656E204261736CEC
:104490006174696C6469213C2F63656E7465723E5A
:1044A0003C2F626F64793E3C2F68746D6C3E0D0A40
:1044B00009090000485454502F312E7820323030F2
:1044C000204F4B0D0A436F6E74656E742D547970D6
:1044D000653A20746578742F68746D6C0D0A436FAB
:1044E0006E6E656374696F6E3A20636C6F73650DF1
:1044F0000A566172793A204163636570742D456E86
:10450000636F64696E672C20436F6F6B69652C2045
:10451000557365722D4167656E740D0A0D0A0909A0
:104520003C21444F43545950452068746D6C3E09FA
:10453000093C68746D6C3E3C6D65746120687474F0
:10454000702D65717569763D22436F6E74656E746A
:104550002D547970652220636F6E74656E743D22F0
:10456000746578742F68746D6C3B20636861727336
:1045700065743D7574662D3822202F3E3C626F6451
:10458000793E3C63656E7465723E3C68323E3C62C7
:104590003E5375636365737366756C213C2F623E91
:1045A0003C62723E3C2F68323E5061796D656E749C
:1045B00020486173204265656E205375636365739F
:1045C0007366756C213C2F63656E7465723E3C2F7B
:1045D000626F64793E3C2F68746D6C3E0D0A090968
:1045E00000000000485454502F312E31203230301A
:1045F000204F4B0D0A436F6E74656E742D547970A5
:10460000653A20746578742F68746D6C0D0A436F79
:104610006E6E656374696F6E3A20636C6F73650DBF
:104620000A0D0A09093C21444F435459504520685A
:10463000746D6C3E09093C68746D6C3E3C626F643D
:10464000793E3C63656E7465723E3C68323E3C6206
:104650003E4572726F72213C2F623E3C2F68323EA3
:104660003C62723E5061796D656E742048617320C2
:104670004265656E20556E73756363657373667509
:104680006C213C2F63656E7465723E3C2F626F64D3
:10469000793E3C2F68746D6C3E0D0A0909000000DC
:1046A000485454502F312E3120323030204F4B0D92
:1046B0000A436F6E74656E742D547970653A207478
:1046C0006578742F68746D6C0D0A436F6E6E656348
:1046D00074696F6E3A20636C6F73650D0A0D0A0979
:1046E0003C21444F43545950452068746D6C3E2022
:1046F000093C68746D6C3E20093C626F64793E2011
:10470000093C626F6479206267636F6C6F72203D51
:104710002223636364396666223E20093C7469740F
:104720006C653E45535038323636202D20506C652E
:1047300061736520456E7465722053534944202689
:1047400020506173733C2F7469746C653E20093C82
:104750006865616465723E20093C63656E746572CC
:104760003E2020203C68323E203C623E4765627A13
:104770006520546563686E6963616C20556E697667
:104780006572736974793C2F623E203C2F68323E1B
:1047900020093C68333E203C623E4465706172747F
:1047A0006D656E74204F6620456C656374726F6E24
:1047B00069637320456E67696E656572696E673CF3
:1047C0002F623E203C2F68333E20093C68333E2058
:1047D0003C623E5468652046696E616C2050726F81
:1047E0006A6563743C2F623E203C2F68333E20098B
:1047F000266E6273703B09266E6273703B09266EEB
:104800006273703B09266E6273703B09266E627399
:10481000703B09266E6273703B093C68333E203C56
:10482000623E3C7370616E207374796C653D2263E7
:104830006F6C6F723A20236666303030303B223E18
:1048400057494649204E6574776F726B2043616EFD
:10485000204E6F742046696E64204F72204E6F2088
:10486000436F6E6E656374696F6E213C2F73706168
:104870006E3E3C2F623E203C2F68333E20093C6850
:10488000333E203C623E3C7370616E207374796CE1
:10489000653D22636F6C6F723A202366663030305C
:1048A000303B223E506C6561736520456E746572C5
:1048B00020546865205353494420416E6420506160
:1048C0007373776F726420546F20436F6E6E6563ED
:1048D000742E3C2F7370616E3E3C2F623E203C2F45
:1048E00068333E3C2F63656E7465723E20093C2F31
:1048F0006865616465723E2009266E6273703B09CB
:104900003C666F726D20616374696F6E203D20227A
:1049100022206D6574686F64203D202267657422D3
:104920003E20093C63656E7465723E3C7461626C46
:104930006520626F72646572203D202231223E3C08
:104940007370616E207374796C65203D2022636FF3
:104950006C6F72203A20233030303030303B223EB2
:104960003C74723E3C74643E574946492053534957
:1049700044203A20266E62737020266E6273702087
:10498000266E62737020266E627370203C2F7464F2
:104990003E3C74643E3C696E707574207479706539
:1049A000203D20227465787422206E616D65203D63
:1049B000202273736964222076616C7565203D2026
:1049C00022223E3C62723E3C2F74643E3C2F747245
:1049D0003E3C2F63656E7465723E20093C63656ED4
:1049E0007465723E3C74723E3C74643E574946495D
:1049F0002050617373776F7264203A203C2F746487
:104A00003E3C74643E3C696E7075742074797065C8
:104A1000203D20227465787422206E616D65203DF2
:104A2000202270617373222076616C7565203D20B1
:104A300022223E3C62723E3C2F74643E3C2F7472D4
:104A40003E3C2F63656E7465723E20093C2F746294
:104A50006F64793E20093C2F7461626C653E2009C9
:104A60003C62723E3C63656E7465723E3C696E707A
:104A700075742074797065203D20227375626D69AC
:104A800074222076616C7565203D20225361766525
:104A9000202620436F6E6E656374223E3C2F636553
:104AA0006E7465723E20093C62723E3C62723E202A
:104AB000093C2F666F726D3E20093C63656E74651C
:104AC000723E20203C68333E203C623E3230313919
:104AD000205365726861742053454645522E3C2F21
:104AE000623E3C2F68333E3C2F63656E7465723EB8
:104AF00020093C63656E7465723E20203C68333E3D
:104B0000203C623E436F7079726967687420416C23
:104B10006C2052657365727665642E3C2F623E3C54
:104B20002F68333E3C2F63656E7465723E20093CEE
:104B30002F626F64793E20093C2F68746D6C3E20B3
:104B4000090000002D7472776F726C643139393648
:104B5000323030392D0000005365726861743300C3
:104B600000000000844B00080000002084000000CA
:104B700048320008084C000884000020840F000020
:104B80005832000800000000B4440008E445000862
:104B900018440008A0460008584B0008444B000881
:104BA000604B000800000000000000000000000052
:104BB00000000000000000000000000000000000F5
:104BC00000000000000000000000000000000000E5
:104BD00000000000000000000000000000000000D5
:104BE000000000000000000000000000070A0000B4
:104BF000943C0008010000001000000000000000CC
:084C000000A24A0400000000BC
:04000005080000ED02
:00000001FF
