:020000040800F2
:1000000000500020112A00086D28000875280008FB
:100010009D280008A3280008A92800080000000067
:10002000000000000000000000000000AF280008F1
:10003000B528000800000000BB280008C1280008FF
:10004000592A0008592A0008592A0008592A000884
:10005000C5280008C9280008592A0008592A00089C
:10006000592A0008592A0008592A0008592A000864
:10007000592A0008592A0008592A0008592A000854
:10008000592A0008592A0008592A0008592A000844
:10009000592A0008592A0008592A0008592A000834
:1000A000592A0008592A0008592A0008592A000824
:1000B000592A0008592A0008592A0008CD280008A2
:1000C000D9280008592A0008592A0008592A000886
:1000D000592A0008E5280008592A0008592A00086A
:1000E000592A0008592A0008592A0008000000006F
:1000F0000000000000000000000000000000000000
:0C01000000000000000000005FF808F1A3
:10010C0010B5054C237833B9044B13B10448AFF345
:10011C0000800123237010BD880000200000000027
:10012C003034000808B5034B1BB103490348AFF347
:10013C00008008BD000000008C0000203034000856
:10014C00034613F8012B002AFBD1181A013870470B
:10015C0038B50E4B054618784FF47A73B3FBF0F3B1
:10016C000B4A1068B0FBF3F000F09EF8044658B947
:10017C000F2D09D8024629464FF0FF3000F054F8F5
:10018C00044B20461D6038BD012038BD0000002006
:10019C001C00002004000020074A08B51368032047
:1001AC0043F01003136000F02DF80020FFF7D0FF90
:1001BC0002F068FA002008BD00200240034A044BFC
:1001CC0011681B780B441360704700BFC8040020F3
:1001DC0000000020014B1868704700BFC8040020C5
:1001EC0038B50446FFF7F6FF0546631C1EBF044BEB
:1001FC001B78E418FFF7EEFF401B8442FAD838BD99
:10020C0000000020074A0002D36800F4E06023F4E9
:10021C00E0631B041B0C43F0BF6343F40033034344
:10022C00D360704700ED00E0174B30B5DC68C4F3C9
:10023C000224C4F10703251D042B28BF0423062D1B
:10024C004FF0010598BF002405FA03F303F1FF33C7
:10025C0088BF033C1940A14005FA04F4013C22403C
:10026C00002842EA01024FEA0212AFBF00F16040DF
:10027C00064B00F00F00D2B2A5BFD2B200F5614020
:10028C001A5480F8002330BD00ED00E014ED00E0BE
:10029C000123420900F01F0003FA00F0014B43F860
:1002AC002200704700E100E00138B0F1807F0AD2F3
:1002BC00F021064B064A586082F8231000200722D2
:1002CC0098601A6070470120704700BF10E000E092
:1002DC0000ED00E090F8213010B5022B03D0042380
:1002EC008363012010BD03681A6822F00E021A60A5
:1002FC001A6822F001021A60184A93421FD0143275
:10030C0093421ED0143293421DD0143293421DD00E
:10031C00143293421DD0143293420CBF4FF480130D
:10032C004FF080730E4A00245360012380F8213073
:10033C00436B80F820407BB19847204610BD0123C9
:10034C00F0E71023EEE74FF48073EBE74FF48053A4
:10035C00E8E74FF48033E5E7184610BD080002408B
:10036C0000000240114AD36813F0100305D0104965
:10037C00CB6943F00203CB611023D268500706D53A
:10038C000B4943F00403CA6942F00102CA61074AEF
:10039C00D169C90708D50648C16941F00401C1619A
:1003AC00D16921F00101D161D36070470020024076
:1003BC00D004002070477047424B70B5DA68424C4D
:1003CC0012F0100F02D1DB685A070AD54FF0FF3339
:1003DC00A568A360FFF7C6FF2846FFF7ECFF0023D4
:1003EC002370384DEB689B0618D52023EB602378DF
:1003FC00A3B12378012B27D16368013B6360636849
:10040C00DBB1A068FFF7D6FFA06800F58060A060A4
:10041C002B6923F002032B6100F058F8237803F0CA
:10042C00FF014BB9274B1A6922F007021A611A69AE
:10043C0022F4A0521A61217670BD4FF0FF30A060FB
:10044C002370FFF7B7FFE9E72378022B09D12B695B
:10045C00002023F004032B61FFF7ACFF0023237073
:10046C00DCE76368013B63606368D3B1A368023364
:10047C00A360A668D4E90401020C42EA01420B0C09
:10048C00C4E904232B6923F001032B61D4E9042371
:10049C000023E3612B6992B243F001032B6132809C
:1004AC00BCE72378032B06D1A068FFF783FF4FF03E
:1004BC00FF33A360D2E72378A068042B0CBF02386B
:1004CC000638F2E700200240D00400200022064B40
:1004DC00DA61064B1A6942F002021A6158611A6914
:1004EC0042F040021A617047D00400200020024004
:1004FC002DE9F74F00221646654BDFF8A4E1DFF833
:10050C00A4C14FF001080C6808FA06F808EA0404C4
:10051C00A0457FD14D68122D00F0AF8000F288808D
:10052C00022D00F0A7807CD8002D00F08E80012DCC
:10053C0000F09E804FF00F09FF2C93BF824606F10E
:10054C008045083DD0F800B092BFB500D0F804B09B
:10055C00AD0009FA05F82BEA080802FA05F588BF80
:10056C0000F1040A48EA0505CAF80050D1F804A0C5
:10057C001AF0805F4ED0474D464FAD6926F0030808
:10058C0045F00105BD61BD6908F1804805F0010524
:10059C00019508F5803806F0030B019D4FEA8B0B93
:1005AC00D8F8085009FA0BF925EA09093A4DA8427E
:1005BC0068D005F58065A84266D005F58065A8422F
:1005CC0064D005F58065A8420CBF0325042505FA07
:1005DC000BF545EA0905C8F808501D681AF4803F68
:1005EC0014BF2543A5431D605D681AF4003F14BF7A
:1005FC002543A5435D609D681AF4801F14BF2543F5
:10060C00A5439D60DD681AF4001F14BF2C4325EA36
:10061C000404DC600136102E7FF473AF03B0BDE828
:10062C00F08F032D22D0112D84D1CA68043281E7BA
:10063C001A4FBD4209D012D8DFF86C904D4504D04A
:10064C0009F580394D457FF475AF8A68C2B1012A2E
:10065C000CBFC0F81080C0F8148008226AE77545FA
:10066C00F3D06545F1D0DFF84490EBE7002261E769
:10067C00CA685FE7CA6808325CE7CA680C3259E797
:10068C00042257E70025A2E70125A0E702259EE7F3
:10069C00000401400010024000080140000021103D
:1006AC000000311000003210000011100000221068
:1006BC000AB1016170470904FBE70268536913F43E
:1006CC0080630DD06FF48063536104232022036494
:1006DC000023036380F83C3080F83D2001207047F4
:1006EC00184670472DE9F843044617469946C1F35E
:1006FC0007488EB22568B8F1010F0CBF6B69AB6966
:10070C0036EA030314BF0120002008B9BDE8F883C2
:10071C006B695A0512D52B68202243F400732B60A9
:10072C006FF480636B610423236400230120236333
:10073C0084F83C3084F83D20BDE8F8837B1CD9D08C
:10074C004FB900232022236384F83C3084F83D20E9
:10075C000320BDE8F883FFF73DFDA0EB09008742BD
:10076C00C8D2EEE72DE9F843044690461F46089E92
:10077C00C1F307498DB22368B9F1010F0CBF5B6956
:10078C009B6935EA03030CBF01230023434502D0C8
:10079C000020BDE8F8837B1CEDD05FB9002320223C
:1007AC00236384F83C3084F83D20032084F83E30E9
:1007BC00BDE8F883FFF70EFD801B8742DBD2EDE727
:1007CC0070B504460D46164623685B691B0601D5B9
:1007DC00002070BD2046FFF770FFA8B96A1CF3D04B
:1007EC0065B9236C202243F02003236400230320EB
:1007FC00236384F83C3084F83D2070BDFFF7EAFC9D
:10080C00801B8542E0D2ECE7012070BD2DE9FF4151
:10081C0015460268984613680B9E43F48073136068
:10082C000F4600960A9B00224FF001110446FFF779
:10083C0099FF68B9236807F0FE071F610A9A3346CF
:10084C001A492046FFF74EFF30B1236C042B18D009
:10085C00032004B0BDE8F081236803905A690A991B
:10086C0003929B69324603932046039BFFF7A8FF34
:10087C0048B1236C042BEBD12268136843F400734A
:10088C0013600120E5E7B8F1010F236802D1EDB246
:10089C001D61DEE72A0A1A610A9932462046FFF7E3
:1008AC008FFF0028E5D12368F1E700BF02000100AB
:1008BC0070B504460D46164623685B695B0701D587
:1008CC00002070BD2046FFF7F8FEA8B96A1CF3D0D3
:1008DC0065B9236C202243F02003236400230320FA
:1008EC00236384F83C3084F83D2070BDFFF772FC24
:1008FC00801B8542E0D2ECE7012070BD38B5044680
:10090C0008B9012038BD90F83D3003F0FF021BB947
:10091C0080F83C2001F00CFF2423226884F83D3041
:10092C00136823F00103136001F044F863682F4A45
:10093C00934230D82E4A9042E3D92E4A2168B0FB1C
:10094C00F2F24A6001320A62284A0138934232D8E4
:10095C005B00B0FBF3F0431CC3F30B03042B38BF59
:10096C000423CB61226AE369002013430B60E26825
:10097C00236913438B60A26963691343CB600B68D3
:10098C0043F001030B602023206484F83D30206386
:10099C0084F83E0038BD184A9042B2D9154D4FF438
:1009AC009672B0FBF5F521686A434D604FF47A7589
:1009BC00B2FBF5F2C6E7A26852B903EB4303B0FBF6
:1009CC00F3F0431CC3F30B036BB143F40043C8E7D0
:1009DC0019225343B0FBF3F0431CC3F30B0313B1C5
:1009EC0043F44043BDE70123BBE700BFA0860100F1
:1009FC007F841E0040420F00FF083D002DE9F347A5
:100A0C0004469A46884691460C9EFFF7E3FB94F801
:100A1C003D300546202B03D0022002B0BDE8F08704
:100A2C000090192301223E492046FFF79BFE002827
:100A3C00F2D194F83C30012BEED0012384F83C30F9
:100A4C00236800271A684146D20758BF1A68204607
:100A5C005CBF42F001021A601A6822F400621A604C
:100A6C00212384F83D30402384F83E300A9B2764D0
:100A7C006362BDF82C30019563852A4B0096E362C6
:100A8C00638D4A4623855346FFF7C0FE00282AD0C3
:100A9C00236C84F83C70042B07D10120BDE7FFF7D1
:100AAC008FFE20B1236C042B34D00320B5E7616A90
:100ABC0027684B1C63620B78228D3B61638D501E43
:100ACC00013B9BB263857B6980B25B0720850AD5AD
:100ADC0048B18B1C63624B78023A3B61638D228573
:100AEC00013B9BB26385238D2A4631462046002B61
:100AFC00D5D1FFF7DDFE0028D4D12268136843F46A
:100B0C0000731360202384F83C0084F83D3084F893
:100B1C003E0082E72268136843F400731360BCE75D
:100B2C00020010000000FFFF7047704770477047CD
:100B3C0070477047704770477047704790F83D306A
:100B4C0010B5293B012B0446036839D800220263F7
:100B5C00282280F83D201A6822F400621A605A6834
:100B6C0012F4006254D05A68606B22F400625A602E
:100B7C0090F82130012B394B31D04363FFF7AAFB9E
:100B8C0050B12268606B136823F0010313602023BB
:100B9C0084F83D30436B984794F83D30282B0ED1A8
:100BAC00236C5B070BD52E4B2022E36200232046DF
:100BBC00236384F83D2084F83E30FFF7BAFF10BD64
:100BCC0090F83D20602A05D05A6812055CBF20229F
:100BDC0080F83D200022226384F83E20BBE7A06B06
:100BEC004363FFF777FB0028D6D022685369580679
:100BFC0004D5636A1269591C61621A702268A06B71
:100C0C00136823F001031360202384F83D30C1E7FF
:100C1C0094F83D10602914D1202184F83D102264F1
:100C2C005A69510604D5626A1B69511C61621370C2
:100C3C0022682046136823F001031360FFF77DFF41
:100C4C00AAE75A69520604D5626A1B69511C616293
:100C5C0013702046FFF770FF9EE700BF8114000859
:100C6C000000FFFF0368F0B59D6959695A6890F858
:100C7C003E408DB0E4B2102C02D0402C40F0568295
:100C8C0011F0011F66D0970564D590F83E40402CBA
:100C9C0043D1046D002C3BD1446C04F0FE041C6168
:100CAC00944E954C2E400C40002E00F0A281934D9A
:100CBC000D40002D00F06981550540F16681002C36
:100CCC0040F0638190F83D20058D90F83E10D2B233
:100CDC00C9B2C46A002D40F01781212A40F0168158
:100CEC00042C00F06F81082C00F06C8114F5803F0F
:100CFC0000F068815A6822F4E0625A6011230363A1
:100D0C0080F83E50202380F83D30FFF70DFF18E1AE
:100D1C00446C44F00104E4B2C1E70469B4F5804FBB
:100D2C0005D190F83D40212C446CF2D1B5E7046D0F
:100D3C0034B9446CE41104F0060444F0F004AEE75A
:100D4C00046D012CACD1446CE41104F0060444F0A5
:100D5C00F104A4E76A4C0C401CB1960501D5446C17
:100D6C00D9E7684C0C40002C9AD0940598D590F893
:100D7C003E40C66AD0F830E090F83D70E4B2222FC5
:100D8C0040F0AF80076D47B9402C06D100975C69E5
:100D9C0000949C690094009C82E7046D8CB90769EF
:100DAC00B7F5404F0DD101945C6901949C69019495
:100DBC00019C1C6844F480741C60046D013404654F
:100DCC006EE7448DA4B254B902945C6902949C6998
:100DDC000294029C1C6844F400741C6019E0448D5D
:100DEC00A4B2012C42D116F5803F1BD11C6824F40F
:100DFC0080641C605C6814F400640CD01C6824F4DF
:100E0C0080641C60002403945C6903949C690394C3
:100E1C00039C0024D3E704945C6904949C690494B7
:100E2C00049CD7E7042E15D0082E13D0BEF1120F58
:100E3C0010D0C46A022C1C6814BF24F4806444F4DF
:100E4C0080641C60002405945C6905949C6905947D
:100E5C00059CDEE71C6824F480641C600024069466
:100E6C005C6906949C690694069CB3E7448DA4B215
:100E7C00022C23D1C46A0026022C1C6814D044F422
:100E8C0000641C6007965C6907949C690794079C36
:100E9C001C6824F480641C605C682705B9D55C6808
:100EAC0044F480545C60B4E744F480641C6008969D
:100EBC005C6908949C690894089CEDE71C6844F4F0
:100ECC0080641C605C68260542BF5C6844F48054F6
:100EDC005C60002409945C6909949C690994099CE0
:100EEC0097E700240A945C690A949C690A940A9C0A
:100EFC00D6E600BF040010000400010080000100D1
:100F0C000800010002000100212A03D0402918D159
:100F1C00222A16D1428D92B222B95A6822F48062EA
:100F2C005A600EE090F83E20402A28D1026D82B91A
:100F3C00C26C012A826C06D1D2B21A61036D0233E3
:100F4C0003650DB0F0BDC2F307221A61036D0133C6
:100F5C00F6E7026D012A02D1826CD2B2F5E7026D7E
:100F6C00022AEED190F83D20222A04D11A6842F4CC
:100F7C0080721A60E5E790F83D20212AE1D1426A9F
:100F8C00511C416212781A6199E0002CD9D0940559
:100F9C00D7D5C16A90F83D20212AD2D1428D92B288
:100FAC00002AECD104290DD008290BD011F5803F73
:100FBC0008D0596821F4E06159601123036380F86B
:100FCC003E209FE65A6822F4E0625A601A6842F4A6
:100FDC0000721A6000232022036380F83D2090F8F1
:100FEC003E2080F83E30402A7FF48FAEFFF7A2FD02
:100FFC00A7E78F4D0D40002D46D0510544D5002C50
:10100C0042D190F83D20222A9BD1428D92B2032AE4
:10101C0005D9426A1B69511C416213704FE0023AB8
:10102C00012AC26A0DD8022A1A681DBF22F48062F6
:10103C001A601A6842F4806218BF42F400621A60A7
:10104C006BE7022A1A6814BF22F4806242F48062B1
:10105C001A605A6822F4E0625A60426A1B69511C99
:10106C0041621370438D013B9BB24385202380F872
:10107C003D300023036390F83E2080F83E30402A38
:10108C0051D1FFF758FD5CE7002C3FF45AAF9705A0
:10109C007FF557AFC26A418D89B20329416A13D1DA
:1010AC00042A04D0082A02D012F5803F03D11A6812
:1010BC0022F480621A601B694A1C42620B70438DD9
:1010CC00013B9BB243853CE7448DA4B2022CF2D188
:1010DC00042A1FD0082A1DD012F5803F1AD0022AEC
:1010EC001A6814BF22F4806242F480621A605A6853
:1010FC0022F440725A601B694A1C42620B70438D89
:10110C00013B9BB24385436A5A1C426202681269D6
:10111C001A70A7E75A6822F440725A601A6842F4AF
:10112C0000721A60E7E7FFF700FD0AE7414C0C403C
:10113C0074B196050CD599699B6981F004011D0663
:10114C00C1F3800154BF8289028BFFF7F1FCF8E6F2
:10115C00394C0C40002C73D0940571D590F83D207F
:10116C005968D2B221F4E061596000210B915969A0
:10117C000B91196841F0010119600B99196821F460
:10118C0080611960596809050CD590F83D10222929
:10119C0003D090F83D102A2929D1816B0968496840
:1011AC0089B24185418D89B2E1B159694F0708D5A2
:1011BC00416A1B694C1C44620B70438D013B9BB212
:1011CC00438501684B695E0608D5436A09695C1C56
:1011DC0044621970438D013B9BB24385036C43F011
:1011EC0004030364036C23B1FFF7A8FCA9E6416B6D
:1011FC00D4E7A2F1280102290AD8104AC26220229F
:10120C00036380F83D2080F83E30FFF792FC98E6AF
:10121C00036B222B02D0222A7FF493AE00232022D0
:10122C00036380F83D2080F83E30FFF780FC88E6B1
:10123C004000010002000100100001000000FFFF4F
:10124C00394E3A4C2E400C40002E36D0384D0D40C5
:10125C003DB3550525D524BB90F83D10428DC9B240
:10126C0092B2002A3FF46DAE426A541C446212786A
:10127C001A61428D013A92B24285428D92B2002A95
:10128C007FF45FAE29297FF45CAE5A6822F4806249
:10129C005A6021230363282380F83D30FFF746FC76
:1012AC004FE6002C3FF44DAE94057FF54AAE428DCF
:1012BC0092B2002A7FF463AE43E61E4D0D4035B367
:1012CC00510524D51CBB90F83D20418DD2B289B27A
:1012DC0000293FF436AE416A1B694C1C44620B700A
:1012EC00438D013B9BB24385438D9BB2002B7FF416
:1012FC0028AE2A2A7FF425AE0268536823F4806353
:10130C00536022230363282380F83D308DE7002CA3
:10131C003FF417AE92057FF514AE428D92B2002ABF
:10132C007FF477AE0DE600BF04001000040001004E
:10133C008000010040000100F8B503684B4A5E696B
:10134C00044616425D680CD0E8050AD5226C42F0C2
:10135C00010222646FF480725A611A6842F40042EE
:10136C001A6016F4813F08D0E90506D5226C42F0CC
:10137C00020222646FF400725A6116F4823F36D076
:10138C00EA0534D594F83E70618D94F83D20202FF9
:10139C0089B2D2B2206B58D1002956D102F0F70194
:1013AC00212903D0282A50D121284ED194F83D2050
:1013BC00E16AD2B2042901D008292CD1282A2AD1D9
:1013CC002B4A2046E2625A6822F4E0625A606FF4BB
:1013DC0080625A611A6822F480621A60002320220B
:1013EC00236384F83D2084F83E30FFF7A2FB16F40B
:1013FC00843F09D0EB0507D56FF40062236C43F0F2
:10140C000803236423685A61236C73B32046BDE838
:10141C00F840FFF793BB212A23D115492046E162FE
:10142C002263202284F83D20002284F83E205A6852
:10143C0022F4E0625A606FF480625A611A6822F4F6
:10144C0080621A60FFF772FBD1E7226C42F0040253
:10145C00226494F83E20102A02BF1A6842F40072EB
:10146C001A606FF480625A61C1E7F8BD0001010097
:10147C000000FFFF406A08B50368416B1A6822F44C
:10148C0080621A60002242854A63816B4A6390F83D
:10149C003D1060294FF0200180F83D1080F83E206F
:1014AC0007D102641A6822F001021A60FFF745FBAB
:1014BC0008BD1A6822F001021A60FFF73DFB08BD57
:1014CC0003682DE9F341DB07054610D42B689F0711
:1014DC005ED42B68190700F195802B685A0700F130
:1014EC00BF80EA69002A40F02D81002014E0904C66
:1014FC00636803F00C03042B07D0636803F00C0340
:10150C00082B0CD16368DE0309D523689C03DDD559
:10151C006B68002BDAD1012002B0BDE8F0816B685A
:10152C00B3F5803F10D1236843F480332360FEF77A
:10153C0051FE064623689803C8D4FEF74BFE801B69
:10154C006428F7D90320E7E79BB9236823F4803399
:10155C002360236823F480232360FEF73BFE0646BA
:10156C0023689903B2D5FEF735FE801B6428F7D9A2
:10157C00E8E7B3F5A02F236803D143F4802323605D
:10158C00D1E723F480332360236823F48023CDE751
:10159C00674C636813F00C0F07D0636803F00C03FF
:1015AC00082B10D16368DA030DD423689B0702D58E
:1015BC002B69012BAFD123686A6923F0F80343EA46
:1015CC00C203236085E72A695A4B6AB101221A606B
:1015DC00FEF700FE064623689F07ECD4FEF7FAFDE3
:1015EC00801B0228F7D9ADE71A60FEF7F3FD06461B
:1015FC00236898077FF56DAFFEF7ECFD801B022882
:10160C00F6D99FE7AA694A4C4B4BDAB101221A6012
:10161C00FEF7E0FD0646636A9B070DD54FF4FA52C0
:10162C00464B1B68B3FBF2F3019300BF019B5A1EA0
:10163C000192002BF9D150E7FEF7CCFD801B02285C
:10164C00E9D97FE71A60FEF7C5FD0646636A9F0776
:10165C007FF543AFFEF7BEFD801B0228F6D971E77C
:10166C00334CE369D80024D40127E36943F0805359
:10167C00E361E36903F080530093009B304E3368C1
:10168C00D90518D5EB68012B26D1236A43F0010349
:10169C002362FEF79FFD41F288368046236A9B0742
:1016AC003FD5002F3FF41DAFE36923F08053E36176
:1016BC0017E70027E2E7336843F480733360FEF7E3
:1016CC0089FD80463368DA05DCD4FEF783FDA0EB98
:1016DC0008006428F6D935E7ABB9236A41F288389B
:1016EC0023F001032362236A23F004032362FEF731
:1016FC0071FD0646236A9807D3D5FEF76BFD801B58
:10170C004045F7D91EE7052B236A03D143F00403A8
:10171C002362BAE723F001032362236A23F0040354
:10172C00B6E7FEF757FDA0EB0800B042B6D909E7C3
:10173C000010024000004242800442421C00002083
:10174C0000700040224C636803F00C03082B3FF43C
:10175C00E2AE00231F4E022A33602BD1FEF73AFD76
:10176C000746236899011FD42B6AB3F5803F05D136
:10177C006268A96822F400320A436260696A62688E
:10178C000B4322F474121343636001233360FEF79E
:10179C0021FD054623689A013FF5A7AEFEF71AFD19
:1017AC00401B0228F6D9CDE6FEF714FDC01B02281B
:1017BC00D7D9C7E6FEF70EFD054623689B017FF5DA
:1017CC0094AEFEF707FD401B0228F6D9BAE600BF1F
:1017DC00001002406000424230B5194B87B002AC99
:1017EC0003F11005224618685968083303C2AB424E
:1017FC001446F7D101238DF80430022311498DF8DA
:10180C0005304B6803F00C02082A17D1C3F383424E
:10181C0006A80244DB0312F8102C0CD54B680A48BE
:10182C00C3F34043504306AA134413F8143CB0FBD3
:10183C00F3F007B030BD05485043FAE70248F8E72B
:10184C00483400080010024000127A0000093D00E4
:10185C00544A2DE9F0411368054603F007038B4207
:10186C000E462AD329688C0734D4CA0747D44D4A6C
:10187C00136803F007039E42C0F082802A684A4C2A
:10188C0012F0040F40F08780130706D563682A69AD
:10189C0023F4605343EAC2036360FFF79DFF636860
:1018AC00424AC3F30313D35CD840414B1860002069
:1018BC00FEF74EFC0020BDE8F081136823F007030F
:1018CC000B431360136803F007039942CAD001203D
:1018DC00BDE8F081344B11F0040F1EBF5A6842F47E
:1018EC00E0625A60080742BF5A6842F460525A607C
:1018FC005A68A86822F0F00202435A60B5E76A6899
:10190C00294C012A23681CD113F4003FDFD06368F3
:10191C0041F2883823F0030313436360FEF75AFC4B
:10192C006B680746012B14D1636803F00C03042B7E
:10193C009DD0FEF74FFCC01B4045F5D90320BDE8F8
:10194C00F081022A02D113F0007FDFE713F0020FBF
:10195C00DCE7022B0FD1636803F00C03082B86D055
:10196C00FEF738FCC01B4045F5D9E7E7FEF732FC23
:10197C00C01B4045E2D8636813F00C0FF6D176E734
:10198C00136823F0070333431360136803F0070352
:10199C009E429CD172E76368E96823F4E0630B43D1
:1019AC00636071E70020024000100240D142000841
:1019BC001C000020044B054A5B68C3F30223D35C74
:1019CC00034A1068D840704700100240E1420008FA
:1019DC001C000020044B054A5B68C3F3C223D35C94
:1019EC00034A1068D840704700100240E1420008DA
:1019FC001C0000200368DA6822F49072DA605A69DD
:101A0C0022F001025A61202380F83A30704700001E
:101A1C002DE9F0470568C2682B69016923F440532E
:101A2C0013432B618368EA680B43416922F4B0527B
:101A3C0022F00C020B431343EB606B69826923F4B5
:101A4C00407313436B61404B81469D424FF0190428
:101A5C0046D1FFF7BFFF04FB00F3D9F804604FF049
:101A6C006408B600B3FBF6F3B3FBF8F31E01FFF703
:101A7C00B1FF6043D9F804309B00B0FBF3F7FFF7DC
:101A8C00A9FF6043D9F804309B00B0FBF3F3B3FB20
:101A9C00F8F308FB13731B013233B3FBF8F303F0B9
:101AAC00F007FFF797FF6043D9F804209200B0FBD2
:101ABC00F2FAFFF78FFF6043D9F804309B00B0FBBC
:101ACC00F3F3B3FBF8F308FB13A31B013233B3FBA3
:101ADC00F8F303F00F033B433344AB60BDE8F087EE
:101AEC00FFF768FF04FB00F3D9F804604FF06408BB
:101AFC00B600B3FBF6F3B3FBF8F31E01FFF75AFF86
:101B0C006043D9F804309B00B0FBF3F7FFF752FFAA
:101B1C006043D9F804309B00B0FBF3F3B3FBF8F34C
:101B2C0008FB13731B013233B3FBF8F303F0F0071C
:101B3C00FFF740FF6043D9F804209200B0FBF2FAA3
:101B4C00FFF738FFB7E700BF0038014010B5044677
:101B5C0040B390F8393003F0FF021BB980F83820FD
:101B6C0000F028FE2423226884F83930D3682046FC
:101B7C0023F40053D360FFF74BFF236800201A694E
:101B8C0022F490421A615A6922F02A025A61DA68E8
:101B9C0042F40052DA602023E06384F8393084F890
:101BAC003A3010BD012010BD90F83930202B18D1DF
:101BBC00A9B1A2B190F83830012B12D0C284828422
:101BCC000023212201620168C36380F83920CA68AE
:101BDC0080F8383042F08002CA6018467047012005
:101BEC0070470220704790F83A30202B20D1E9B191
:101BFC00E2B190F83830012B1AD0C28582850023CF
:101C0C002222C36380F83A2002688162D16880F88E
:101C1C00383041F48071D1605169184641F00101AE
:101C2C005161D16841F02001D160704701207047AB
:101C3C0002207047704790F83A3010B5222B36D1FD
:101C4C0083680169B3F5805F0268836A23D15268A7
:101C5C00E9B9C2F3080223F8022B8362C48D013C5C
:101C6C00A4B2C4858CB90368DA6822F02002DA6069
:101C7C00DA6822F48072DA605A6922F001025A6141
:101C8C00202380F83A3000F0BDF8002010BDD2B20D
:101C9C0023F8012BE1E721B9591C526881621A70B3
:101CAC00DCE75268591C816202F07F02F7E70220E0
:101CBC0010BD0000036870B51A6804461607D96891
:101CCC005D6907D196065AD58D0658D5BDE870408A
:101CDC00FFF7B1BF15F0010502D111F4907F4ED082
:101CEC00D30705D5CE0542BFE36B43F00103E36395
:101CFC00500704D51DB1E36B43F00203E363930774
:101D0C0004D51DB1E36B43F00403E363160704D55C
:101D1C001DB1E36B43F00803E363E36B002B66D068
:101D2C00950604D5880602D52046FFF784FF236864
:101D3C0020465D69E26B110702D415F040051AD0FC
:101D4C00FFF758FE23685A69520610D55A69606B22
:101D5C0022F040025A6150B1254B4363FEF7BAFAA8
:101D6C00002844D0606BBDE87040436B1847204698
:101D7C0000F0B8FD70BD00F0B5FDE56370BD160652
:101D8C0027D50D0625D594F83920212A2FD1A26804
:101D9C00B2F5805F226A17D11188C1F3080159602E
:101DAC00216979B902322262E28C013A92B2E28460
:101DBC00EAB9DA6822F08002DA60DA6842F04002AE
:101DCC00DA6070BD0132EEE7511C216212785A6064
:101DDC00EAE750060BD54A0609D5DA68204622F008
:101DEC004002DA60202384F83930FFF723FF70BDFE
:101DFC00011E000808B50023406AC385C38400F0A7
:101E0C0071FD08BD38B50268204B9A423CD1204B7D
:101E1C0020481C78204A0A2C204B2CD01968F92910
:101E2C0029DC00250560481C186054541C491A48CC
:101E3C0000F07BFE1B4B1C491860174800F075FE28
:101E4C001A4B1B491860144800F06FFE194B1A49C5
:101E5C001860114800F069FE184B194918600E48BB
:101E6C0000F063FE174B0122186009491648BDE8C3
:101E7C003840FFF7B8BE19680A44002102F8011C6B
:101E8C00012219600260D1E738BD00BF0038014063
:101E9C00A4000020AC000020540B0020A80000205F
:101EAC00CA3A0008540C0020DA3A00082C0500202D
:101EBC00E13A000804050020F13A0008F80400207B
:101ECC00013B0008500C00203005002008B5FA2218
:101EDC000021034800F0E6FD0022024B1A6008BD09
:101EEC00540B0020A800002038B50F4C0D460146BD
:101EFC00204600F012FE0D49204600F0FFFD204662
:101F0C00FEF71EF90A4B421C1A60214692B2094890
:101F1C00FFF74AFE2846FEF763F90749074800F029
:101F2C0004FE074B186038BD740500202A3B0008DE
:101F3C00600C002030050020143B0008540B0020DE
:101F4C0070050020F8B50F46144C154D014620467F
:101F5C00164600F0E2FD3A461249284600F0AAFD6A
:101F6C002946204600F0CAFD0F49204600F0C6FD68
:101F7C002046FEF7E5F80D4B421C1A60214692B242
:101F8C000B48FFF711FE0B490B4800F0CEFD0B4C34
:101F9C0020603046FEF724F92068F8BD7405002057
:101FAC00500B0020173B00082A3B0008600C002057
:101FBC0030050020143B0008540B00207005002055
:101FCC00F8B507460E46174C17492046154600F043
:101FDC00A4FD3946204600F091FD1449204600F03E
:101FEC008DFD3146204600F089FD1149204600F058
:101FFC0085FD2046FEF7A4F80E4B421C1A602146C4
:10200C0092B20D48FFF7D0FD2846FEF7E9F80B49D0
:10201C000B4800F08AFD0B4C2060FFF757FF20683F
:10202C00F8BD00BF740500201A3B0008253B0008D2
:10203C00293B0008600C002030050020143B0008F0
:10204C00540B00207005002038B500210B48FFF719
:10205C004BFF0B490B4800F068FD0B4C0B49206003
:10206C0000F07EFD03460A4D1A1A13F8011BD2B27A
:10207C0009B9206838BDA954F6E700BFBC3A00087E
:10208C00C53A0008540B0020F4040020273B00083C
:10209C00080500202DE9F84300233E4C01221021B5
:1020AC003D482360FEF704FB4FF47A713B48FFF781
:1020BC001BFF3B4D4FF47A712846FFF715FF0028A4
:1020CC00F8D0FFF703FF374D4FF4FA712846FFF7AE
:1020DC000BFF0028F8D0FFF7F9FE334B1A6898462F
:1020EC000AB3324F3A68F2B10025314EDFF8A890AE
:1020FC0041F658323968D8F80000FFF761FF013516
:10210C003060002843D00123002210214846236070
:10211C00FEF7CEFA052D36D10023012210211E48E0
:10212C002360FEF7C5FAFFF7D1FE224C4FF4FA718B
:10213C002046FFF7D9FE0028F8D0FFF7C7FEFFF7BF
:10214C0083FF0028FBD01C4C4FF4FA712046FFF79C
:10215C00CBFE0028F8D0FFF7B9FE184C4FF4FA71FB
:10216C002046FFF7C1FE0028F8D0FFF7AFFE144C55
:10217C004FF4FA712046FFF7B7FE0028F8D0BDE8FF
:10218C00F843FFF7A3BE3368002BB1D0CBE7052D86
:10219C00AED1C1E7F004002000080140583400081B
:1021AC005F3400086F340008100000200C00002081
:1021BC00580C00207B340008A7340008B334000806
:1021CC00C534000840F2A24110B50B4B0B4C4FF438
:1021DC00967223600A4B0B481960FFF7B3FE206818
:1021EC004FF47A71FFF780FE074C0A212046FFF767
:1021FC007BFE0028F9D010BDD4340008280500203F
:10220C00600C0020763900088439000838B5504B32
:10221C001C68002C2FD04F4B4F4C012204214F48EF
:10222C002360FEF745FA2068FDF78AFF4C4D01301C
:10223C002860C820FDF7D4FF642229684948FFF7BD
:10224C0081FEC8212068FFF74FFEFFF73FFE464D89
:10225C00464CC8212846FFF747FE2368002BF8D0D0
:10226C00FFF734FE002204213C48FEF721FA01223C
:10227C003F4B1A6038BD3F4B1A686AB100F086FBC1
:10228C00FFF724FE3C4B0122102134481C60FEF762
:10229C000FFAFFF7FFFEEAE7384B1B68002B32D032
:1022AC00374B2D4C2F212D482360FEF701FA206867
:1022BC00FDF746FF2A4D411C64222A482960FFF78E
:1022CC0041FE24682046FDF73BFF01302860C82101
:1022DC002046FFF709FE244C14212046FFF704FE8C
:1022EC000028F9D04FF47A70FDF77AFFBFF34F8FC7
:1022FC002449254BCA6802F4E0621343CB60BFF358
:10230C004F8F00BFFDE7214A12683AB11A460F21E0
:10231C001248FEF7CDF9FFF755FFA8E71C4B1C68D8
:10232C00002CA4D020461B4900F0FFFB1A4B186070
:10233C001A4B001B18601A4B64201A6854F8063F9D
:10234C00136063685360A3689360FDF749FFE2E78D
:10235C00500C00209239000828050020000801408C
:10236C00600C00207639000884390008B000002089
:10237C00AC000020540C0020F0040020F8040020D5
:10238C00233A000800ED00E00400FA0504050020E3
:10239C002C050020B63A000800050020FC040020A3
:1023AC000800002000B591B02822002106A800F0FA
:1023BC0079FB1422002101A800F074FB0223069380
:1023CC0001230A93102306A80B93FFF779F8002139
:1023DC000F2301A801930291039104910591FFF73A
:1023EC0037FA11B05DF804FB00B589B0FDF7D4FEE7
:1023FC00FFF7D8FF102200210DEB020000F052FB7A
:10240C002B4B3F219A692B4842F020029A619A6922
:10241C00002402F020020192019A9A69012642F0EE
:10242C0004029A619A69244D02F004020292029A03
:10243C009A6942F008029A619B69002203F0080332
:10244C000393039BFEF734F93F230493022304A95F
:10245C001848079305960694FEF74AF81748184A49
:10246C00184B846080E80C004FF48043C460036117
:10247C0044618461C4610462FEF740FA4FF4165360
:10248C001149284685E80A000C23AC606B61EC60AE
:10249C002C61AC61EC61FFF759FB32460B492846C5
:1024AC00FFF7A1FBFFF7F6FDFFF7B0FEFCE700BF5F
:1024BC00001002400008014030050020640C002090
:1024CC0000540040A086010000380140A400002008
:1024DC007FB54FF0FF3306AA02F8010D02930123DA
:1024EC0078218DE80C0003480022FEF787FA07B02C
:1024FC005DF804FB640C00201FB54FF0FF3389B26C
:10250C008DE8030002934022012378210248FEF754
:10251C0075FA05B05DF804FB640C00200023054936
:10252C00021C18BF012252425A540133B3F5806F7A
:10253C00F6D17047BA00002038B500240A4DA4F13A
:10254C005000C0B2FFF7C4FF0020FFF7C1FF1020FE
:10255C00FFF7BEFF05EBC41080210134FFF7CCFF61
:10256C00082CECD138BD00BFBA000020030610B512
:10257C001AD43F2918D80D4B1B7913B1B2FA82F239
:10258C005209CC08012A0A4B01F0070100EBC410D8
:10259C0004D18A40195C0A431A5410BD01228A40A6
:1025AC00195C21EA0201195410BD00BFB4000020CF
:1025BC00BA0000202DE9F04F87B0074606A800E9C5
:1025CC0006009B46204B9DF810901C88019304EB51
:1025DC0009027F2A36DC5B889DF811A0009303EB7F
:1025EC000A023F2A2EDC0026A7F120020AFB02F386
:1025FC000393564506D3019B4C441C80384607B0C8
:10260C00BDE8F08F0025039B0599F21831F81230C4
:10261C000293009B03EB06085FFA88F84D4501D343
:10262C000136E6E7029B281903FA05F2130456BF9C
:10263C00BBFA8BF25A4652094146C0B2FFF796FFDD
:10264C000135EBE70027D9E7B4000020F7B51F46AA
:10265C006D468DE80600461E74784CB195E8060070
:10266C0020463B46FFF7A6FF16F8014FA042F3D0D9
:10267C00204603B0F0BD0000014B18805980704714
:10268C00B4000020284B07B59A69022142F00102E0
:10269C009A619A696FF00B0002F001020092009AA5
:1026AC00DA6942F08052DA61DB69002203F0805370
:1026BC000193019BFDF7B8FD002203216FF00A0086
:1026CC00FDF7B2FD002204216FF00900FDF7ACFD0F
:1026DC00002205216FF00400FDF7A6FD0022062163
:1026EC006FF00300FDF7A0FD002207216FF0010041
:1026FC00FDF79AFD002204201146FDF795FD0420FC
:10270C00FDF7C6FD002205201146FDF78DFD0520C5
:10271C00FDF7BEFD054A536823F0E06343F00073F8
:10272C00536003B05DF804FB001002400000014050
:10273C0010B5044686B01022002102A800F0B2F9B0
:10274C002268194B9A422CD1184C02A9A36918483B
:10275C0043F00803A361A36903F008030093009BF3
:10276C00C02302931223039303230593FDF7C0FEAA
:10277C000022E369114643F40013E361E3691F206F
:10278C0003F400130193019BFDF74EFD1F20FDF791
:10279C007FFD002220201146FDF746FD2020FDF78D
:1027AC0077FD06B010BD00BF005400400010024081
:1027BC00000C014010B5044686B01022002102A87E
:1027CC0000F070F922681B4B9A4230D103F5584344
:1027DC009A6902A942F480429A619A69164802F4F5
:1027EC0080420092009A9A69002442F004029A6195
:1027FC009B6903F004030193019B4FF40073029354
:10280C000223039303230593FDF772FE4FF48063B9
:10281C0002A90948029303940494FDF769FE25204C
:10282C0022460121FDF700FD2520FDF731FD06B004
:10283C0010BD00BF0038014000080140BFF34F8FAE
:10284C000549064BCA6802F4E0621343CB60BFF340
:10285C004F8F00BFFDE700BF00ED00E00400FA055C
:10286C0008B5FFF7EBFF000008B50020FFF756FE98
:10287C000A210846FFF700FF034A012306CA034852
:10288C00FFF7E4FEFEE700BF14000020C042000882
:10289C0008B5FFF7D3FF08B5FFF7D0FF08B5FFF772
:1028AC00CDFF08B5FFF7CAFF08B5FFF7C7FF08B59E
:1028BC00FFF7C4FFFDF782BCFDF77EBD704700003B
:1028CC000148FEF7CFB900BF640C00200148FEF7A9
:1028DC0033BD00BF640C00200148FFF7EBB900BF0B
:1028EC003005002010B50020FFF718FE0A2108461D
:1028FC00FFF7C2FEBDE81040024A012306CA024897
:10290C00FFF7A4BE14000020B442000808B50A4B1F
:10291C000246196809B909491960694618680244E0
:10292C008A4206D900F094F80C2303604FF0FF3074
:10293C0008BD1A6008BD00BFBC040020BC0C002000
:10294C000F4B1A6842F001021A6059680D4A0A408E
:10295C005A601A6822F0847222F480321A601A6863
:10296C0022F480221A605A6822F4FE025A604FF454
:10297C001F029A604FF00062034B9A60704700BFD1
:10298C00001002400000FFF800ED00E010B5002040
:10299C00174CFFF7C3FD0A211420FFF76DFE94E8D6
:1029AC00060001231348FFF751FE14212320FFF7E3
:1029BC0063FE94E8060001230F48FFF747FE282129
:1029CC001420FFF759FE94E8060001230B48FFF78B
:1029DC003DFE32212320FFF74FFE94E80600012331
:1029EC000748FFF733FEBDE81040FFF7A5BD00BF59
:1029FC0014000020E9420008F242000800430008DD
:102A0C000A430008002103E00B4B5B584350043190
:102A1C000A480B4B42189A42F6D30A4A02E00023AA
:102A2C0042F8043B084B9A42F9D3FFF789FF00F0B8
:102A3C0015F8FFF7D9FC7047504300080000002040
:102A4C008400002088000020BC0C0020FEE7000061
:102A5C00014B1868704700BF2000002070B500259E
:102A6C000C4E0D4CA41BA410A54209D100F0DAFCAD
:102A7C0000250A4E0A4CA41BA410A54205D170BD1A
:102A8C0056F8253098470135EEE756F8253098472B
:102A9C000135F2E748430008484300084843000862
:102AAC004C43000803460244934200D1704703F89C
:102ABC00011BF9E70EB44FF4027100B59CB0ADF8F0
:102ACC0014106FF00041049107914FF6FF711DAB8C
:102ADC0002900690084853F8042BADF816100068C5
:102AEC0002A9019300F09EF90022029B1A701CB0FF
:102AFC005DF804EB03B0704720000020024610B5CF
:102B0C0013461C780132002CFAD1013B11F8012B31
:102B1C0003F8012F002AF9D110BD034611F8012B3F
:102B2C0003F8012B002AF9D17047F0B5037833B1C3
:102B3C00034618465E1C1B7833B91846F0BD0B785B
:102B4C00002B18BF0020F0BD4D1E441E15F8012FA0
:102B5C00002AF3D014F8017F33469742F6D0E8E709
:102B6C00134B2DE9F0411D680646AC6D0F46B4B908
:102B7C00502000F049F8A865046044608460C4608B
:102B8C000461446184618462C46204634463846349
:102B9C00C463046444648464C46404774462AA6DAA
:102BAC0039463046BDE8F041012300F003B800BFC0
:102BBC0020000020F0B518B9106808B9F0BD204607
:102BCC0004460F4614F8015B17F8016B1EB965B982
:102BDC0015602846F0BDB542F6D1002BEFD114603C
:102BEC000370F0BD1C460CE015B90E4614F8013B01
:102BFC0016F8015BAB42F7D1002BF3D0002304F89D
:102C0C00013C1460F0BD0000024B0146186800F056
:102C1C004FB800BF2000002038B50546002943D02E
:102C2C0051F8043C0C1F002BB8BFE41800F0C9FB92
:102C3C001E4A1368104633B9636014602846BDE819
:102C4C00384000F0BFBBA3420BD9216862189342F5
:102C5C0001BF1A685B685218226063600460EDE77C
:102C6C0013465A680AB1A242FAD919685818A042F8
:102C7C000BD120680144581882421960DED11068CB
:102C8C005268014419605A60D8E702D90C232B60B2
:102C9C00D4E7206821188A4201BF116852680918CC
:102CAC00216062605C60C9E738BD00BFC0040020D1
:102CBC0070B5CD1C25F0030508350C2D38BF0C253F
:102CCC00002D064601DBA94203D90C2333600020FA
:102CDC0070BD00F076FB234A1468214691B9224C52
:102CEC0023681BB9304600F029FB2060294630468A
:102CFC0000F024FB431C26D10C233046336000F03B
:102D0C0061FBE4E70B685B1B1AD40B2B0FD90B6030
:102D1C00CC18CD50304600F055FB04F10B00231DB0
:102D2C0020F00700C31A1BD05A42E25070BD8C42EF
:102D3C000BBF63684B681360636018BF0C46E9E710
:102D4C000C464968CAE7C41C24F00304A04205D011
:102D5C00211A304600F0F2FA0130CDD02560D9E7C7
:102D6C0070BD00BFC0040020C40400202DE9F04752
:102D7C008E6882469E420C469146984635D88A8982
:102D8C0012F4906F31D00223256809696F1A6569B6
:102D9C0005EB450595FBF3F508F101033B449D421A
:102DAC0038BF1D46530531D52946FFF781FF06462E
:102DBC0050B90C23CAF80030A3894FF0FF3043F010
:102DCC004003A381BDE8F0873A46216900F0D4FAAC
:102DDC00A38923F4906343F08003A38126613E44CE
:102DEC00266046466561ED1BA560464528BF4646F4
:102DFC0049463246206800F0CAFAA36800209B1BA3
:102E0C00A36023681E442660BDE8F0872A4600F0C4
:102E1C00DAFA06460028E1D121695046FFF7FCFE9C
:102E2C00C7E700002DE9F04F9DB003938B898046D6
:102E3C001C060D4616460FD50B696BB94021FFF7E2
:102E4C0037FF2860286128B90C23C8F800304FF0F0
:102E5C00FF30C4E040236B610023099320238DF8DD
:102E6C00293030234FF0010B8DF82A3037463C4681
:102E7C0014F8013B002B3CD1B7EB060A0BD05346A0
:102E8C00324629464046FFF771FF013000F0A28020
:102E9C00099B534409933B78002B00F09B80002343
:102EAC004FF0FF3204930793059206938DF853303D
:102EBC001A9305222178504800F050FA671C049BA5
:102ECC00D8B9D90644BF20228DF853201A0744BF25
:102EDC002B228DF8532022782A2A16D000210A2082
:102EEC00079A27463B780134303B092B50D9C9B19E
:102EFC0011E0252BC0D02746B9E73F4A3C46801A43
:102F0C000BFA00F018430490D3E7039A111D1268D2
:102F1C000391002A01DB079204E0524243F00203C2
:102F2C00079204933B782E2B0DD17B78791C2A2B9E
:102F3C0032D1039B02371A1D1B680392002BB8BFBA
:102F4C004FF0FF3305932D4C03223978204600F0C7
:102F5C0005FA38B14023001B03FA00F0049B01373B
:102F6C00034304933978062225487E1C8DF82810DB
:102F7C0000F0F4F9002835D0224BFBB9039B073342
:102F8C0023F0070308330393099B4B4409936DE724
:102F9C0000FB02320121A4E700230A241846059302
:102FAC000F463A780131303A092A03D9002BCAD09E
:102FBC000590C8E704FB00200123F1E703AB009365
:102FCC002A46114B04A94046AFF30080B0F1FF3FF5
:102FDC008146D9D1AB895B063FF539AF09981DB055
:102FEC00BDE8F08F03AB00932A46074B04A940467B
:102FFC0000F084F8EAE700BF144300081A43000805
:10300C001E43000800000000792D00082DE9F04750
:10301C0091461F468A680B6906469342B8BF134611
:10302C00C9F8003091F843200C46DDF8208012B12D
:10303C000133C9F800302368990642BFD9F8003033
:10304C000233C9F80030256815F0060507D104F1E4
:10305C00190AE368D9F800209B1A9D422ADB94F8E0
:10306C0043302268003318BF012392062FD404F199
:10307C00430239463046C047013022D02368E56808
:10308C0003F00603042B18BF0025D9F800204FF0DD
:10309C00000908BFAD1AA368226908BF25EAE575C7
:1030AC009342C4BF9B1AED181A344D451BD1002016
:1030BC00BDE8F0870123524639463046C0470130FF
:1030CC0003D14FF0FF30BDE8F0870135C1E7302068
:1030DC00E11881F843005A1C94F84510224402333D
:1030EC0082F84310C3E70123224639463046C047D5
:1030FC000130E6D009F10109D7E700002DE9F043D2
:10310C0017460A7E85B06E2A984606460C460C9BDE
:10311C0001F1430E00F0BC801AD8632A2ED00AD8D5
:10312C00002A00F0C880582A00F08A8004F1420579
:10313C0084F842202AE0642A01D0692AF6D1216859
:10314C001A6811F0800F23D0111D1960136827E045
:10315C00732A00F0B48008D86F2A2AD0702AE5D1DF
:10316C000A6842F020020A6003E0752A21D0782A0E
:10317C00DCD178226F4984F8452064E01A6801F1AB
:10318C004205111D1960136884F842300123A3E035
:10319C0011F0400F02F104011960D7D0B2F90030E0
:1031AC00002B03DA2D225B4284F8432062490A2269
:1031BC0017E02068196810F0800F03D0081D186004
:1031CC000B6806E010F0400F01F104001860F7D016
:1031DC000B886F2A14BF0A2208225749002084F852
:1031EC0043006568002DA560C0F29C80206820F02B
:1031FC0004002060002B3FD1002D40F095807546D7
:10320C00082A0BD12368DA0708D5236962689A4229
:10321C00DEBF302305F8013C05F1FF35AEEB0503AD
:10322C002361CDF800803B4603AA21463046FFF7C8
:10323C00EDFE013055D14FF0FF3005B0BDE8F08305
:10324C0081F845203C492268186812F0800F00F183
:10325C0004051D6001D0036802E05506FBD5038808
:10326C00D00744BF42F0200222601BB9226822F032
:10327C00200222601022B1E77546B3FBF2F002FB8C
:10328C001033CB5C05F8013D03460028F5D1B7E7B8
:10329C0008681A6810F0800F496904D0101D186076
:1032AC001368196007E010F0400F02F10400186079
:1032BC001368F6D01980002375462361B1E71A68AC
:1032CC00111D1960156800216268284600F046F847
:1032DC0008B1401B606063682361002384F84330AD
:1032EC009FE723692A4639463046C0470130A2D0B1
:1032FC0023689B0707D5002504F11909E368039A95
:10330C009B1A9D4205DBE068039B9842B8BF1846A8
:10331C0093E701234A4639463046C04701308AD0EC
:10332C000135EBE7002BA7D10B7804F1420584F8AB
:10333C00423065E7364300082543000838B50023C2
:10334C00054C054608462360FFF7E0FA431C02D102
:10335C00236803B12B6038BDB80C002010B5C9B27E
:10336C0002449042034601D1002010BD1C7801306C
:10337C008C42F6D1184610BD10B5431E0A4491423A
:10338C0000D110BD11F8014B03F8014FF7E788424B
:10339C0010B501EB020303D8421E99420CD110BDAB
:1033AC009842F9D28118D21AD34200D110BD13F829
:1033BC00014D01F8014DF7E711F8014B02F8014FEF
:1033CC00EBE770477047F8B5074614460E4621B92F
:1033DC001146BDE8F840FFF76BBC22B9FFF71CFCA7
:1033EC0025462846F8BD00F014F884420FD9214632
:1033FC003846FFF75DFC05460028F2D031462246E0
:10340C00FFF7BAFF31463846FFF706FCE9E73546C9
:10341C00E7E751F8040C0028A0F10400BCBF0B58DE
:10342C00C0187047F8B500BFF8BC08BC9E46704782
:0C343C00F8B500BFF8BC08BC9E46704705
:1034480002030405060708090A0B0C0D0E0F1010DD
:1034580041542B5253540041542B43574155544F18
:10346800434F4E4E3D300041542B43574D4F44453A
:103478003D330041542B43575341505F4445463D2B
:10348800225365726861745F455350222C2273651C
:10349800726861747365666572222C352C3400413C
:1034A800542B4349504D55583D310041542B434905
:1034B800505345525645523D312C38300041542B1B
:1034C80043495053544F3D353030300048545450E0
:1034D8002F312E3120323030204F4B0D0A436F6E82
:1034E80074656E742D547970653A20746578742FFC
:1034F80068746D6C0D0A436F6E6E656374696F6EE8
:103508003A20636C6F73650D0A0D0A093C21444F1C
:1035180043545950452068746D6C3E20093C6874CA
:103528006D6C3E20093C626F64793E20093C626FF5
:103538006479206267636F6C6F72203D2223636336
:1035480064396666223E20093C7469746C653E45A0
:10355800535038323636202D20506C656173652003
:10356800456E746572205353494420262050617378
:10357800733C2F7469746C653E20093C686561640E
:1035880065723E20093C63656E7465723E2020209A
:103598003C68323E203C623E4765627A652054654D
:1035A80063686E6963616C20556E697665727369CC
:1035B80074793C2F623E203C2F68323E20093C68DB
:1035C800333E203C623E4465706172746D656E7472
:1035D800204F6620456C656374726F6E6963732053
:1035E800456E67696E656572696E673C2F623E203D
:1035F8003C2F68333E20093C68333E203C623E54F1
:1036080068652046696E616C2050726F6A656374E4
:103618003C2F623E203C2F68333E2009266E6273A1
:10362800703B09266E6273703B09266E6273703BAD
:1036380009266E6273703B09266E6273703B092619
:103648006E6273703B093C68333E203C623E3C73BB
:1036580070616E207374796C653D22636F6C6F7254
:103668003A20236666303030303B223E574946497F
:10367800204E6574776F726B2043616E204E6F74B5
:103688002046696E64204F72204E6F20436F6E6E25
:10369800656374696F6E213C2F7370616E3E3C2FB9
:1036A800623E203C2F68333E20093C68333E203C74
:1036B800623E3C7370616E207374796C653D226361
:1036C8006F6C6F723A20236666303030303B223E92
:1036D800506C6561736520456E7465722054686529
:1036E800205353494420416E642050617373776FAF
:1036F800726420546F20436F6E6E6563742E3C2F86
:103708007370616E3E3C2F623E203C2F68333E3C16
:103718002F63656E7465723E20093C2F686561648D
:1037280065723E2009266E6273703B093C666F72B3
:103738006D20616374696F6E203D202222206D65C3
:1037480074686F64203D2022676574223E20093C1E
:1037580063656E7465723E3C7461626C6520626F6D
:1037680072646572203D202231223E3C7370616E86
:10377800207374796C65203D2022636F6C6F722012
:103788003A20233030303030303B223E3C74723E99
:103798003C74643E574946492053534944203A20D3
:1037A800266E62737020266E62737020266E6273B6
:1037B8007020266E627370203C2F74643E3C7464E3
:1037C8003E3C696E7075742074797065203D2022C6
:1037D8007465787422206E616D65203D20227373B4
:1037E8006964222076616C7565203D2022223E3C6A
:1037F80062723E3C2F74643E3C2F74723E3C2F63D1
:10380800656E7465723E20093C63656E7465723E30
:103818003C74723E3C74643E57494649205061737B
:1038280073776F7264203A203C2F74643E3C746452
:103838003E3C696E7075742074797065203D202255
:103848007465787422206E616D65203D2022706158
:103858007373222076616C7565203D2022223E3CE0
:1038680062723E3C2F74643E3C2F74723E3C2F6360
:10387800656E7465723E20093C2F74626F64793EF0
:1038880020093C2F7461626C653E20093C62723EDF
:103898003C63656E7465723E3C696E707574207425
:1038A800797065203D20227375626D6974222076D7
:1038B800616C7565203D2022536176652026204382
:1038C8006F6E6E656374223E3C2F63656E7465721D
:1038D8003E20093C62723E3C62723E20093C2F66E3
:1038E8006F726D3E20093C63656E7465723E2020E0
:1038F8003C68333E203C623E323031392053657299
:103908006861742053454645522E3C2F623E3C2F39
:1039180068333E3C2F63656E7465723E20093C63D4
:10392800656E7465723E20203C68333E203C623EE2
:10393800436F7079726967687420416C6C205265B6
:103948007365727665642E3C2F623E3C2F68333E69
:103958003C2F63656E7465723E20093C2F626F646C
:10396800793E20093C2F68746D6C3E200900415453
:103978002B43495053454E443D302C0041542B4372
:103988004950434C4F53453D35000909485454505C
:103998002F312E3120323030204F4B0D0A436F6EBD
:1039A80074656E742D547970653A20746578742F37
:1039B80068746D6C0D0A436F6E6E656374696F6E23
:1039C8003A206B6565702D616C6976650D0A0D0A84
:1039D80009093C21444F43545950452068746D6C83
:1039E8003E2009093C68746D6C3E3C63656E7465E5
:1039F800723E4F626A656374205761732044657430
:103A08006563746564213C2F63656E7465723E3C22
:103A18002F68746D6C3E0D0A090900090948545451
:103A2800502F312E3120323030204F4B0D0A436F4A
:103A38006E74656E742D547970653A207465787467
:103A48002F68746D6C0D0A436F6E6E656374696FD1
:103A58006E3A20636C6F73650D0A0D0A09093C21E3
:103A6800444F43545950452048544D4C3E20090971
:103A78003C68746D6C3E0A3C63656E7465723E53B7
:103A8800544D33322059656E6964656E2042617306
:103A98006C6174696C6469213C2F63656E7465722E
:103AA8003E0A3C2F68746D6C3E0D0A0909002670A9
:103AB8006173730041542B434946535200415049A6
:103AC80050005749464920444953434F4E4E4543B9
:103AD80054003F737369643D002F6C6F67696E20F3
:103AE800485454502F312E31002F7265736574205D
:103AF800485454502F312E31002F64657465637417
:103B0800656420485454502F312E31004F4B002506
:103B1800640041542B43574A41503D2200222C2235
:103B280000220D0A002D7472776F726C6431393976
:103B380036323030392D00536572686174330000B5
:103B4800000000000000000000000000000000006D
:103B580000000000001000100010001000100010FD
:103B680000000010000000000028002800280000C5
:103B780000000000000000000000000000240024F5
:103B8800007C00240048007C004800480000000039
:103B98000038005400500038001400540054003815
:103BA8000010000000200054005800300028005485
:103BB8000014000800000000001000280028001071
:103BC80000340048004800340000000000100010D5
:103BD80000100000000000000000000000000000CD
:103BE80000080010002000200020002000200020F5
:103BF8000010000800200010000800080008000855
:103C080000080008001000200010003800100028EC
:103C1800000000000000000000000000000000009C
:103C280000100010007C00100010000000000000D0
:103C3800000000000000000000000000000000106C
:103C48000010001000000000000000000000003814
:103C5800000000000000000000000000000000005C
:103C6800000000000000001000000000000800082C
:103C780000100010001000100020002000000000BC
:103C88000038004400440054004400440044003814
:103C9800000000000010003000500010001000105C
:103CA8000010001000000000003800440044000428
:103CB800000800100020007C0000000000380044CC
:103CC800000400180004000400440038000000004C
:103CD80000080018002800280048007C0008000898
:103CE80000000000007C0040004000780004000450
:103CF800004400380000000000380044004000780C
:103D0800004400440044003800000000007C000427
:103D18000008001000100020002000200000000013
:103D2800003800440044003800440044004400388F
:103D3800000000000038004400440044003C000437
:103D480000440038000000000000000000100000DF
:103D5800000000000000001000000000000000004B
:103D6800000000100000000000000010001000100B
:103D780000000000000C003000400030000C000083
:103D880000000000000000000000007C0000007C33
:103D980000000000000000000000000000600018A3
:103DA8000004001800600000000000000038004413
:103DB80000040008001000100000001000000000BF
:103DC80000380044004C0054005C004000400038BB
:103DD8000000000000100028002800280028007CAF
:103DE80000440044000000000078004400440078CB
:103DF80000440044004400780000000000380044FB
:103E0800004000400040004000440038000000002E
:103E1800007000480044004400440044004800701A
:103E280000000000007C00400040007C0040004092
:103E38000040007C00000000007C0040004000784A
:103E480000400040004000400000000000380044EE
:103E580000400040005C00440044003800000000BE
:103E6800004400440044007C0044004400440044F2
:103E780000000000003800100010001000100010B2
:103E880000100038000000000004000400040004D2
:103E9800000400040044003800000000004400480A
:103EA8000050006000500048004800440000000036
:103EB8000040004000400040004000400040007CBE
:103EC800000000000044006C006C005400440044F2
:103ED80000440044000000000044006400640054F2
:103EE8000054004C004C004400000000003800441E
:103EF800004400440044004400440038000000002E
:103F0800007800440044004400780040004000402D
:103F1800000000000038004400440044004400440D
:103F280000540038000400000078004400440044B5
:103F380000780048004800440000000000380044B1
:103F48000040003000080004004400380000000071
:103F5800007C00100010001000100010001000106D
:103F680000000000004400440044004400440044B1
:103F780000440038000000000044004400440028C9
:103F88000028002800100010000000000044004431
:103F9800005400540054006C002800280000000061
:103FA80000440028002800100010002800280044C1
:103FB8000000000000440044002800280010001001
:103FC8000010001000000000007C00040008001031
:103FD800001000200040007C0000000000180010C5
:103FE8000010001000100010001000100010001841
:103FF8000020002000100010001000100008000829
:104008000000000000300010001000100010001028
:104018000010001000100030001000280028004494
:104028000000000000000000000000000000000088
:10403800000000000000000000000000000000FE7A
:104048000020001000000000000000000000000038
:10405800000000000000000000380044003C00445C
:10406800004C00340000000000400040005800648C
:1040780000440044006400580000000000000000F4
:1040880000380044004000400044003800000000B0
:10409800000400040034004C00440044004C003488
:1040A800000000000000000000380044007C0040D0
:1040B8000044003800000000000C0010007C0010D4
:1040C80000100010001000100000000000000000A8
:1040D8000034004C00440044004C003400040078D4
:1040E800004000400058006400440044004400447C
:1040F8000000000000100000007000100010001008
:1041080000100010000000000010000000700010F7
:104118000010001000100010001000E000400040E7
:1041280000480050006000500048004400000000B3
:104138000070001000100010001000100010001097
:1041480000000000000000000078005400540054F3
:1041580000540054000000000000000000580064F3
:104168000044004400440044000000000000000037
:1041780000380044004400440044003800000000B7
:104188000000000000580064004400440064005827
:1041980000400040000000000034004C004400448F
:1041A800004C0034000400040000000000580064C3
:1041B80000400040004000400000000000000000F7
:1041C80000380044003000080044003800000000B7
:1041D8000020002000780020002000200020001887
:1041E80000000000000000000044004400440044B7
:1041F800004C0034000000000000000000440044AF
:10420800002800280028001000000000000000001E
:10421800005400540054006C0028002800000000DE
:10422800000000000044002800100010002800448E
:10423800000000000000000000440044002800289E
:10424800001000100010006000000000007C000852
:10425800001000200040007C000000000018001042
:10426800001000100020002000100010001000189E
:1042780000100010001000100010001000100010B6
:104288000010001000300010001000100008000896
:104298000010001000100030000000000000007442
:1042A800004C00000000000000000000554152547E
:1042B800204552524F522100484152444641554CE4
:1042C80054204552524F52210000000000000000C7
:1042D80000010203040607080900000000010203A8
:1042E80004574946492057415300444953434F4EC8
:1042F8004E45435445442100547279696E672054F1
:104308006F005265636F6E6E65637400232D302BEA
:104318002000686C4C0065666745464700303132BE
:104328003334353637383941424344454600303115
:104338003233343536373839616263646566000074
:044348003101000837
:04434C000D01000857
:104350000100000010000000B53A00082D3B0008E5
:104360003F3B0008070A0000483B000800A24A043F
:1043700024000020000000000000000000000000F9
:10438000000000000000000000000000000000002D
:10439000000000000000000000000000000000001D
:1043A000000000000000000000000000000000000D
:1043B00000000000000000000000000000000000FD
:1043C00000000000000000000000000000000000ED
:0443D00000000000E9
:0400000508002A11B4
:00000001FF
